:10300000413409F072C008C04734D9F1473458F14F
:10301000483409F06AC05DC083E08093BB0085E856
:103020008093BC0082E45FC08091B900803429F4B1
:1030300085E88093BC0083E456C085EA8093BC0099
:1030400081E451C08091BB00809357028091570268
:10305000882369F447C083E08093BB0085E88093B0
:10306000BC0086E440C08091B900803429F085EA34
:103070008093BC0085E437C085EC8093BC0087E476
:1030800032C0E0914602F09147028091BB00EB51C3
:10309000FE4F808380914602909147020196909363
:1030A0004702809346022091460230914702809168
:1030B000570290E001972817390734F485EC809384
:1030C000BC004093650211C085E88093BC0088E491
:1030D0000AC0E0914602F09147028091BB00EB519B
:1030E000FE4F80838AE580936502809165028A3570
:1030F00021F484E98093BC00A895FF91EF919F9102
:103100008F914F913F912F910F900FBE0F901F9075
:1031100018951092850010928400109281001092F0
:10312000B1008091B60080FDFCCF1092B00080917C
:10313000B60081FDFCCF1092B2008091B60084FDF4
:10314000FCCF089581E08093B1008091B60080FDAE
:10315000FCCF81E0809381000895CF92DF92EF92BF
:10316000FF920F931F93282F1092EE011092ED0102
:103170001092660210926702109268021092690221
:103180008091ED019091EE010F97D4F31092EE0132
:103190001092ED01C0906602D0906702E090680244
:1031A000F0906902F7FE08C0F094E094D094C094C7
:1031B000C11CD11CE11CF11C2223E1F00091410251
:1031C00010914202000F111F01511E4FC701B6019D
:1031D0002AE030E040E050E00E94C52CF801318345
:1031E0002083809141029091420201969093420285
:1031F00080934102C701B6012AE030E040E050E090
:103200000E94C52CCA01B9011F910F91FF90EF9048
:10321000DF90CF900895DF92EF92FF920F931F936C
:10322000D82E8093660080E00E94AD182091660041
:103230002F5F20936600AC01CB01DA017C018D0188
:1032400080E00E94AD189B01AC01E616F706080766
:10325000190754F480916600815080936600809134
:1032600066008D1531F508C0809166008F5F8093F0
:10327000660079018A01E4CF8091660081508093D5
:10328000660080E00E94AD189B01AC01E616F706CF
:103290000807190734F4809166008F5F80936600F9
:1032A00008C08091660081508093660079018A0190
:1032B000E8CFB701C8011F910F91FF90EF90DF9009
:1032C0000895982F1092B1008091B60080FDFCCF38
:1032D0001092B0008091B60081FDFCCF1092B20038
:1032E0008091B60084FDFCCF992369F08091700035
:1032F00081608093700081E08093B1008091B6007E
:1033000080FDFCCF0895809170008E7F80937000C7
:103310001092A90108951F920F920FB60F921124D7
:103320002F933F934F935F936F937F938F939F93CD
:10333000AF93BF93EF93FF938091A901853509F473
:1033400074C0863578F4803530F48E3490F5893445
:1033500009F0C8C01DC0803509F43FC0833508F4AA
:10336000C1C027C08037C9F1813748F4893681F060
:10337000893608F4B7C08E3608F4B4C01AC0833753
:1033800008F4B0C08537A8F0853709F0ABC04DC050
:103390008091AE018F5F8093AE018091AE0183304A
:1033A00009F0D2C01092AE0185ED91E00E942E0589
:1033B000CBC0109281002091840030918500109242
:1033C00085001092840081E0809381008091ED015E
:1033D0009091EE010597ECF579C034EA23E094E88A
:1033E0003093BC008091BC0087FFFCCF2093BB00D2
:1033F0009093BC008091BC0087FFFCCF8091B90006
:10340000803471F784E88093BC008091BC0087FF12
:10341000FCCF9091BB0084E98093BC00992309F014
:1034200093C080E00E9461198FC0109281002091AA
:10343000840030918500109285001092840081E014
:10344000809381008091ED019091EE01181619068C
:10345000ECF540E050E08091B901813091F081308D
:1034600018F0823099F51AC0809166029091670237
:10347000A0916802B09169028452944FA040B0407C
:1034800019C08091660290916702A0916802B09184
:1034900069028452944FAF4FBF4F0CC080916602B7
:1034A00090916702A0916802B09169028452944F92
:1034B000AE4FBF4F820F931FA41FB51F80936602AC
:1034C00090936702A0936802B09369021092B901C9
:1034D0008091ED019091EE0101969093EE01809321
:1034E000ED0132C08091AE018F5F8093AE0180917B
:1034F000AE01803149F51092AE018091A901873467
:1035000061F08091A901873641F00E94DA0889E2D2
:1035100090E09093AB018093AA018091A901873438
:1035200021F08091A901873679F489E28093B30074
:1035300081E48093650285EA8093BC001092470283
:103540001092460210925702FF91EF91BF91AF91F6
:103550009F918F917F916F915F914F913F912F91AB
:103560000F900FBE0F901F9018951092EE011092C1
:10357000ED0110926602109267021092680210929A
:1035800069028091ED019091EE010297D4F31092BF
:10359000EE011092ED012091660230916702409198
:1035A000680250916902B901CA0108958093BB0075
:1035B00084E88093BC008091BC0087FFFCCF089515
:1035C000882311F484E801C084EC8093BC008091CE
:1035D000BC0087FFFCCF8091BB0008951F920F9223
:1035E0000FB60F9211242F933F934F935F936F93D6
:1035F0007F938F939F93AF93BF93EF93FF938BEF43
:1036000093E00E94F42C8F3FB9F5809149028330FA
:1036100091F0843028F4813051F0823050F414C09D
:10362000853069F0853048F0863071F40AC082E850
:1036300009C086E407C082EC05C082EB03C082EAC1
:1036400001C084E686BD01C016BC8091A901873403
:1036500021F08091A901873669F480917000109261
:10366000700078940E94E9068091700083608093D6
:10367000700002C00E94E9068BEF93E00E94F42CD8
:10368000813009F054C080914A028823B9F48091B6
:10369000A901873421F08091A901873669F48091CE
:1036A00070001092700078940E94E906809170007A
:1036B00083608093700002C00E94E90680914902F5
:1036C000833091F0843028F4813051F0823050F40E
:1036D00013C0853069F0853048F0863069F40AC03F
:1036E00080E80BC085E409C016BC08C082EB05C0A9
:1036F00082EA03C084E601C082EC86BD80914A0262
:10370000813049F0813028F0823059F0833079F4EB
:103710000CC081E007C0299A8BB18C6F8BB982E015
:1037200001C083E080934A0202C010924A02FF91D6
:10373000EF91BF91AF919F918F917F916F915F9129
:103740004F913F912F910F900FBE0F901F901895A2
:103750002F923F924F925F926F927F928F929F92A1
:10376000AF92BF92CF92DF92EF92FF920F931F938F
:10377000DF93CF93CDB7DEB7C358D0400FB6F894E0
:10378000DEBF0FBECDBF04B602FE03C084B78B7F81
:1037900084BF80917C00806480937C00A89584B76E
:1037A000877F84BF80916000886180936000109261
:1037B000600084B18F6384B987B1876087B98AB1AB
:1037C0008C6F8AB985B18D6385B988B1876088B9F6
:1037D000299A8BB18C6F8BB97894609066008DEFCD
:1037E00093E00E94F42CEA968FAFEA9780E28093F0
:1037F000B8008093B6001092AE0104B600FEAAC0D5
:1038000085E063EC70EF0E94160684B78E7F84BF5C
:1038100084E58093A901809170008160809370009D
:1038200080916F00816080936F000E94891881E011
:103830008093B1008091B60080FDFCCF11E0109321
:10384000810080E00E94AD1880E00E94AD1880E009
:103850000E94AD18695E7340804090400CF46EC0C9
:1038600085E58093A9010E9489181093B100809189
:10387000B60080FDFCCF81E08093810020E130E044
:10388000209366001092EE011092ED0110926602F4
:103890001092670210926802109269028091ED0105
:1038A0009091EE010297D4F31092EE011092ED0187
:1038B0008091660290916702A0916802B0916902BE
:1038C000B7FF07C0B095A095909581959F4FAF4FDA
:1038D000BF4F8E5E9240A040B0401CF425313105B0
:1038E0002CF42F5F3F4F213F310551F68FE4809339
:1038F000A90180916600809348020E94891881E0A6
:103900008093B1008091B60080FDFCCF81E0809370
:103910008100809148020E940B19809166008D5FA2
:103920000E940B19609066008EEF93E0662D0E9456
:10393000FC2C8FEF93E0662D0E94FC2C0E948918CE
:10394000809170008E7F8093700080916F008E7FD9
:1039500080936F0010924A0280916E008160809384
:103960006E00109249028BEF93E00E94F42C8F3F7F
:1039700011F416BC02C082EC86BD83E085BDEC96D6
:103980001FAE1EAEEC9790E0C158DF4F1882CF57A4
:10399000D040EF961FAEEF97222433242101EE96FC
:1039A0001FAEEE97AA24BB24ED961FAEED97E996C5
:1039B0001FAEE997E8961FAEE89714E8712EFE0156
:1039C0003596CE57DF4FF983E883C258D04002C006
:1039D000850158018091A9018734E1F38091A90103
:1039E0008736C1F38091A901893491F38091A901AF
:1039F000893671F38091A901803551F38091A90135
:103A0000803731F3F4EAF093BC008091BC0087FF6B
:103A1000FCCF23E02093BB007092BC008091BC00DF
:103A200087FFFCCF8091B900803491F0913051F73D
:103A300020E030E0F901E155FE4F8081F901EB51C2
:103A4000FE4F80832F5F3F4F2830310599F7DACF43
:103A500034EC3093BC008091BC0087FFFCCF909188
:103A6000BB00992341F044EC4093BC008091BC0022
:103A700087FFFCCF06C07092BC008091BC0087FF1E
:103A8000FCCF8091BB008093A9018091A901823471
:103A900011F010924502992339F1FE013E9620E083
:103AA00030E0492F50E0BA016150704017C026172E
:103AB000370739F47092BC008091BC0087FFFCCFBF
:103AC00007C084EC8093BC008091BC0087FFFCCFD2
:103AD0008091BB0080832F5F3F4F319624173507BD
:103AE00034F384E98093BC008091A901833680F48B
:103AF000813618F5873409F1883428F48234E9F0E6
:103B0000843489F41AC08A34C1F0873561F415C051
:103B1000873699F0883618F4843629F40EC08A3630
:103B200061F0873751F080E090E0FC01EB51FE4FEF
:103B30001082019688309105C1F78091A90190E02B
:103B4000FC013197EA37F10508F0BEC6EC5CFF4F87
:103B5000EE0FFF1F0590F491E02D0994B7E0EB2ED6
:103B6000F12C0CC69F858E858734B9F1883478F4A2
:103B7000833439F1843430F4813401F1823409F032
:103B8000A3C619C0853419F1863420F51DC08436CA
:103B9000D9F0853640F4823671F0833690F4813660
:103BA00009F092C60BC08636A9F0863680F08736BB
:103BB00009F08AC612C023E030E011C020E030E0F6
:103BC0000EC024E030E00BC022E030E008C025E069
:103BD00030E005C026E030E002C021E030E098305F
:103BE00008F072C68091A901813451F485B18D63CA
:103BF00085B988B1876088B9299A8BB18C6F8BB9E8
:103C00008091A901813609F05FC6F901EB51FE4FA1
:103C10008081492F552747FD509590E0042E02C022
:103C2000959587950A94E2F780FF0BC0208181E08B
:103C300090E002C0880F991F4A95E2F780952823EB
:103C400009C0208181E090E002C0880F991F4A9549
:103C5000E2F7282B208338C68F85882371F5888961
:103C6000882359F58989882341F58A89882329F58C
:103C70008B89882311F58C898823F9F48D89882311
:103C8000E1F48E858134C9F41092620210926302CD
:103C9000109245028501EC961FAE1EAEEC9790E0A7
:103CA000EF961FAEEF97ED961FAEED97E9961FAE1C
:103CB000E997E8961FAEE8978CCE50E08E85803568
:103CC00051F451E0EC96EEADFFADEC97EE59FD4F9F
:103CD0008081882329F0FE01759620E030E017C02E
:103CE0008FEF808320E030E0EEE0F0E0EC0FFD1F8E
:103CF000E20FF31F8081F901EB51FE4F80832F5FAC
:103D00003F4F2830310581F7DFC52F5F3F4F80815E
:103D100031978823D1F3A8E09A2E921AED969FADA1
:103D2000ED97991611F061E001C0652F40E020E0A9
:103D300030E0F901EB51FE4F9081EEE0F0E0EC0F46
:103D4000FD1FE20FF31F8081981709F44F5F2F5F6B
:103D50003F4F2830310569F7483011F020E002C0AC
:103D600021E025278091EC01882329F19091EC0135
:103D70008D898917C9F49091EB018C898917A1F479
:103D80009091EA018B89891779F49091E9018A89E8
:103D9000891751F49091E8018989891729F4909144
:103DA000E7018889891739F0EF96EFADEF97EF5F5C
:103DB000EF96EFAFEF97EF96FFADEF97FF2309F088
:103DC00080C0222309F07DC020E030E0EEE0F0E08A
:103DD000EC0FFD1FE20FF31F8081F901EB51FE4F45
:103DE00080832F5F3F4F2830310581F7662311F420
:103DF0000C94532CEC962EAD3FADEC97232BD9F4BD
:103E000090916202992311F40C94532C80914502F5
:103E1000880F8F5F8093450291509093620280E0FB
:103E200090E0FC01E25BFD4F108201968830910525
:103E3000C1F70C94532C80916302882379F480910C
:103E40004502880F8093450280E090E0FC01E25B30
:103E5000FD4F1082019688309105C1F79091630261
:103E60009F3F9CF480914502880F8F5F80934502AD
:103E700091509093630280E090E0FC01E25BFD4F83
:103E80001082019688309105C1F7809163028F3FBF
:103E900011F00C94532C809145028F5F8093450262
:103EA00080E090E0FC01E25BFD4F108201968830DB
:103EB0009105C1F7809163028150809363020C9455
:103EC000532CEC968EAD9FADEC97892B09F4F2C084
:103ED00020E030E0F901EB51FE4F8081AEE0B0E030
:103EE000AC0FBD1FA20FB31F8C9310822F5F3F4FEB
:103EF0002830310579F780916F00816080936F00E1
:103F000080EF8093850083EC8093840085E080932C
:103F100081008091AD018823E1F31092AD01809181
:103F20006F008E7F80936F0020E030E0EEE0F0E0E5
:103F3000EC0FFD1FE20FF31F8081F901EB51FE4FE3
:103F400080832F5F3F4F2830310581F7EF969FAD7B
:103F5000EF97923070F480916202882319F08F5F9E
:103F60008093620280916302882319F08F5F8093AF
:103F70006302EE24FF2403C00894E11CF11CF70146
:103F8000EB51FE4F80818823B9F7670160E070E054
:103F900080E090E015C00894E108F108F701EB51CA
:103FA000FE4F10812AE030E040E050E00E94582CA3
:103FB0006053704080409040610F711D811D911DC4
:103FC000E114F10441F76093C1017093C201809341
:103FD000C3019093C40196012F5F3F4FF901EB514C
:103FE000FE4F8081882319F028303105ACF3790128
:103FF00020E030E040E050E016C0F701EB51FE4F0A
:104000001081CA01B9012AE030E040E050E00E948E
:10401000582C9B01AC012053304040405040210FB0
:10402000311D411D511D0894E108F108EC14FD04F7
:1040300021F72093BD013093BE014093BF015093FF
:10404000C00160E070E0FB01EB51FE4F8081E5E0D4
:10405000F0E0EC0FFD1FE60FF71F80836F5F7F4FCF
:104060006830710581F7809145028D87E091620289
:10407000E896EFAFE897F0916302E996FFAFE99712
:104080002093CD013093CE014093CF015093D001C6
:104090008091C1019091C201A091C301B091C4016E
:1040A0008093D1019093D201A093D301B093D40116
:1040B0000C94532C80914502880F880F8093450201
:1040C00080E090E0FC01E25BFD4F108201968830B9
:1040D0009105C1F726E030E0F901EB51FE4F8081F8
:1040E000F901EA51FE4F8083215030404FEF2F3FBE
:1040F000340791F71092E50126E030E0F901EB5129
:10410000FE4F8081F901EA51FE4F808321503040FB
:104110008FEF2F3F380791F790E39093E501E92D5A
:10412000EE5FED96EFAFED97850121E030E0EC9684
:104130003FAF2EAFEC97C9C33E85EE963FAFEE97EB
:10414000E8964FADE89740936202E9968FADE99704
:10415000809363028091CD019091CE01A091CF0117
:10416000B091D0018093BD019093BE01A093BF0197
:10417000B093C0013091D1018091D2019091D301CF
:104180002091D4013093C1018093C2019093C30167
:104190002093C401EE969FADEE979D3499F09E3426
:1041A00038F4913409F455C0943409F072C011C048
:1041B000EE96EFADEE97E03509F440C0E23509F038
:1041C00068C00EC08DEB91E062E672E00E949D0E29
:1041D0003DC08DEB91E062E672E00E94F70D36C0C3
:1041E0001092400210923F0280916F008160809394
:1041F0006F0080EF8093850083EC8093840085E0DE
:1042000080938100309363028DEB91E062E672E06F
:104210000E9493111B012C0180916F008E7F80936F
:104220006F001092810080E090E0FC01EB51FE4FA6
:104230001082019688309105C1F731C03093630236
:104240008DEB91E062E672E00E9418131B012C01D5
:1042500026C020E030E0E5E0F0E0EC0FFD1FE20FCB
:10426000F31F8081F901EB51FE4F80832F5F3F4F99
:104270002830310581F78D858093450280E090E0FC
:10428000FC01E25BFD4F1082019688309105C1F779
:104290001BC3EE96FFADEE97F13409F415C3C201CE
:1042A000B101409164020E946E01209164022C824F
:1042B000BB27A52D942D832D8B83C201AA27BB2755
:1042C0008A83852D9927AA27BB2789832224332413
:1042D000210134EA3093BC008091BC0087FFFCCF01
:1042E00042E04093BB007092BC008091BC0087FF0D
:1042F000FCCF8091B900883161F7FE013196808151
:104300008093BB007092BC008091BC0087FFFCCF03
:104310003196CE57DF4F88819981C258D040E81737
:10432000F90769F72093BB007092BC008091BC0034
:1043300087FFFCCF0C9497298D89882309F05DC0F5
:1043400020E030E0EEE0F0E0EC0FFD1FE20FF31FA5
:104350008081F901EB51FE4F80832F5F3F4F283062
:10436000310581F726E030E0F901EB51FE4F808105
:10437000F901EA51FE4F8083215030409FEF2F3FDB
:10438000390791F71092E50126E030E0F901EB5191
:10439000FE4F8081F901EA51FE4F80832150304069
:1043A000EFEF2F3F3E0791F7F0E3F093E50181E354
:1043B0008093E501F093E60123E030E0F901EB5151
:1043C000FE4F8081D901A751BE4F8C93108221509E
:1043D00030404FEF2F3F340789F78091EC0188235D
:1043E00019F480E38093EC018091EA01882309F0BD
:1043F0003FC090E39093EA013BC0813319F08233D0
:10440000B9F51EC08091E901893349F48091EA0130
:10441000893329F4E0E3E093E901E093EA01809134
:10442000E901893349F4F0E3F093E9018091EA016D
:104430008F5F8093EA011CC08091E9018F5F16C0F5
:104440008091E901813321F48091EA01803381F088
:104450008091E901803339F48091EA0181508093A1
:10446000EA0189E303C08091E90181508093E90169
:104470006091EC012091EB014091EA018091E9010A
:104480001092E5011092E6011092E7011092E80106
:1044900090E080519240EAE04E9FA0011124840FE9
:1044A000951F30E0205132406E9FB0011124260F3D
:1044B000371F829F8001839F100D929F100D112442
:1044C000EE24FF24C8016AE070E00E94902C805D19
:1044D000F701EB51FE4F80830894E11CF11CC801E9
:1044E0006AE070E00E94902C8B011616170654F3B8
:1044F00020E32093450280E090E0FC01E25BFD4F69
:104500001082019688309105C1F7DEC19E8920E0B6
:1045100030E02830310521F4EE969FAFEE970BC0C6
:10452000EEE0F0E0EC0FFD1FE20FF31F8081F901D8
:10453000EB51FE4F80832F5F3F4F2930310549F704
:10454000EE24FF2403C00894E11CF11CF701EB5199
:10455000FE4F8081882319F440E050E01AC033E018
:10456000E316F10481F7F8CF0894E108F108F701A8
:10457000EB51FE4F2081CA0163E0880F991F6A95B5
:10458000E1F7440F551F480F591F40535040420F49
:10459000511DE114F10441F7EE968FADEE97813491
:1045A00019F4A40EB51E12C0EE969FADEE9793358A
:1045B00019F4A41AB50A0AC0EE96EFADEE97E334EB
:1045C00029F4AA24BB2400E010E009C0B7FC02C013
:1045D000850105C08501B094A194B108B394C501CB
:1045E0006AE070E00E94902C805DF701E851FE4F78
:1045F00080830894E11CF11CC5016AE070E00E9410
:10460000902C5B011616170654F317FF07C028EE0F
:1046100031E0E20EF31E8DE2F701808387E08093A4
:10462000450280E090E0FC01E25BFD4F10820196C4
:1046300088309105C1F749C18E858093E5018F854A
:104640008093E60188898093E7019501B7FE04C055
:10465000222733272A193B0900E010E0C9016AE04C
:1046600070E00E94902C805DF801E851FE4F80833D
:104670000F5F1F4FC9016AE070E00E94902C9B0100
:10468000161617065CF3B7FE05C008511E4F8DE2E3
:10469000F801808387E08093450280E090E0FC0190
:1046A000E25BFD4F1082019688309105C1F70CC185
:1046B000F2E0F093B100809170008360809370000D
:1046C0002BE088E190E00FB6F894A8958093600005
:1046D0000FBE20936000F8C020E030E040E050E0E2
:1046E00060E070E0EEE0F0E0EC0FFD1FE60FF71F7A
:1046F0008081280F311D411D511D6330710521F04E
:10470000542F432F322F22276F5F7F4F6430710564
:1047100049F7CA01B9010E940003D6C020E030E089
:1047200040E050E060E070E0EEE0F0E0EC0FFD1FF4
:10473000E60FF71F8081280F311D411D511D633089
:10474000710521F0542F432F322F22276F5F7F4FA7
:104750006430710549F7CA01B9014A8925ED31E094
:104760000E94501622E02093B10080917000816079
:1047700080937000A9C00894E108F108F701EB519B
:10478000FE4F80818823B9F380818D3211F00BE2D6
:1047900004C00894E108F1080DE220E030E040E0B8
:1047A00050E019C0F701EB51FE4F1081CA01B90169
:1047B0002AE030E040E050E00E94582C9B01AC0120
:1047C0002053304040405040210F311D411D511DAC
:1047D0000894E108F108F7FEE5CF0D3239F4509561
:1047E0004095309521953F4F4F4F5F4F2C83BB270E
:1047F00057FDBA95A52F942F832F8B83CA01BB2712
:1048000097FDB095AB2F8A83852FBB2787FDB09589
:104810009B2FAB2F898334EA3093BC008091BC007E
:1048200087FFFCCF42E04093BB007092BC008091B8
:10483000BC0087FFFCCF8091B900883161F7FE0191
:10484000319680818093BB007092BC008091BC0047
:1048500087FFFCCF3196CE57DF4F88819981C258B0
:10486000D040E817F90769F762C520E030E040E082
:1048700050E060E070E0EEE0F0E0EC0FFD1FE60FCE
:10488000F71F8081280F311D411D511D63307105B7
:1048900021F0542F432F322F22276F5F7F4F643038
:1048A000710549F7CA01B9010E94B90C0DC08E8586
:1048B000803319F0813341F403C080E091E002C0FD
:1048C00083E191E00E94AD05850190E082C81E85DC
:1048D000113009F06FC11092420210924102809192
:1048E000700081608093700080916F008160809380
:1048F0006F000E9489181093B1008091B60080FD6E
:10490000FCCF81E080938100809166008C5E809373
:10491000660000E010E081E00E94AD188091660022
:104920008150809366000F5F1F4F0832110599F781
:10493000609266000E948918809170008E7F80933B
:10494000700080916F008E7F80936F0094EA909347
:10495000BC008091BC0087FFFCCFE2E0E093BB008D
:104960007092BC008091BC0087FFFCCF8091B900A1
:10497000883161F7EA96FFADEA97F093BB00709239
:10498000BC008091BC0087FFFCCF24E1620E6092E6
:10499000BB003CEE630E7092BC008091BC0087FFB0
:1049A000FCCFEFEEF1E020813181832F992787FD45
:1049B0009A958093BB007092BC008091BC0087FFE9
:1049C000FCCF2093BB007092BC008091BC0087FF9D
:1049D000FCCF329642E0EF33F40729F76092BB0038
:1049E0007092BC008091BC0087FFFCCF84E980936B
:1049F000BC0084EA8093BC008091BC0087FFFCCFA0
:104A000093E09093BB007092BC008091BC0087FF44
:104A1000FCCF8091B900803461F77092BC00809126
:104A2000BC0087FFFCCFD090BB0084E98093BC0022
:104A30008091700081608093700080916F00816030
:104A400080936F000E94891881E08093B10080916B
:104A5000B60080FDFCCF81E080938100EFEFDE1691
:104A600031F4EA96FFADEA97F093660002C0D09267
:104A7000660080E00E94AD1880E00E94AD1880E0E2
:104A80000E94AD187B018C010E94891880917000F2
:104A90008E7F8093700080916F008E7F80936F0077
:104AA00024EA2093BC008091BC0087FFFCCF32E059
:104AB0003093BB007092BC008091BC0087FFFCCF9C
:104AC0008091B900883161F749EEE41643E0F406BD
:104AD00040E0040740E01407B4F188E58093BB0090
:104AE0007092BC008091BC0087FFFCCFBB2717FDF4
:104AF000BA95A12F902F8F2D8093BB007092BC0090
:104B00008091BC0087FFFCCFE092BB007092BC009C
:104B10008091BC0087FFFCCF84E98093BC008EEFBE
:104B200093E06FEF0E94FC2C8FEF93E06FEF0E94F9
:104B3000FC2CEA968FADEA97809366008501EA9691
:104B40006FACEA97C2CE89E58093BB007092BC003F
:104B50008091BC0087FFFCCF8EEF93E06D2D0E940B
:104B6000FC2C8FEF93E06D2D0E94FC2C9FEFD9164B
:104B700021F4EA966FACEA9704C0D0926600609088
:104B800066008EEF93E00E94F42C8093BB0070923D
:104B9000BC008091BC0087FFFCCF8FEF93E00E94A8
:104BA000F42C8093BB007092BC008091BC0087FF06
:104BB000FCCFBDC3112309F087CE809170008160C6
:104BC0008093700080916F00816080936F000E94DD
:104BD000891881E08093B1008091B60080FDFCCF00
:104BE00081E08093810080E00E94AD1880E00E9407
:104BF000AD1880E00E94AD187B018C010E948918DD
:104C0000809170008E7F8093700080916F008E7F06
:104C100080936F00E4EAE093BC008091BC0087FFC2
:104C2000FCCFF2E0F093BB007092BC008091BC001E
:104C300087FFFCCF8091B900883161F780916600D1
:104C40008093BB007092BC008091BC0087FFFCCFBA
:104C5000BB2717FDBA95A12F902F8F2D8093BB00F6
:104C60007092BC008091BC0087FFFCCFE092BB003B
:104C70007092BC008091BC0087FFFCCF58C380912C
:104C8000660080934802809170008160809370007C
:104C900080916F00816080936F000E94891881E08D
:104CA0008093B1008091B60080FDFCCF81E08093BD
:104CB000810080E00E94AD1880E00E94AD1880E085
:104CC0000E94AD18809148020E940B197B018C0153
:104CD000609066000E948918809170008E7F80939A
:104CE000700080916F008E7F80936F0024EA209384
:104CF000BC008091BC0087FFFCCF32E03093BB004A
:104D00007092BC008091BC0087FFFCCF8091B900FD
:104D1000883161F76092BB007092BC008091BC004A
:104D200087FFFCCFBB2717FDBA95A12F902F8F2DA2
:104D30008093BB007092BC008091BC0087FFFCCFC9
:104D4000E092BB007092BC008091BC0087FFFCCF5A
:104D5000EEC281E00E946119B7CD8E858093490231
:104D60008BEF93E00E94F42C8F3F71F590914902F4
:104D7000933009F458C0943028F4913081F0923087
:104D800080F409C09530B1F0953080F09630A9F0EC
:104D90009730B9F414C016BC43E045BD34C082E876
:104DA00001C086E486BD84E085BD2DC082EB86BD52
:104DB00085E0FACF82EA86BD20C084E6F8CF16BC33
:104DC000F7CF16BC83E0F0CF10924A0280914902DF
:104DD000833009F1843028F4813089F08230B0F4D6
:104DE00009C08530E1F08530C0F08630D1F08730E1
:104DF000E1F419C082EC86BD93E095BD04C080E863
:104E000086BDE3E0E5BD20E030E014C085E486BD6A
:104E1000F3E0F5BDF8CF16BCC7CF82EBC3CF82EA73
:104E2000C1CF84E6BFCF82ECC2CF82EC86BD23E047
:104E300025BDE9CF822F805DF901EB51FE4F8083C4
:104E40002F5F3F4F28303105A9F73ECD80916E008E
:104E50008E7F80936E0085B18D6385B988B1876040
:104E600088B9299A8BB18C6F8BB934EA3093BC0026
:104E70008091BC0087FFFCCF43E04093BB00709261
:104E8000BC008091BC0087FFFCCF8091B9008034CA
:104E900061F784EC8093BC008091BC0087FFFCCF5D
:104EA0008091BB008433C1F1853360F4813361F1BB
:104EB000823318F4803399F513C08233A9F0833319
:104EC00071F516C08733F9F0883328F48533A1F0E3
:104ED000863329F515C08833D1F0893301F51BC01D
:104EE00029988BB183781AC029988BB18B7416C01E
:104EF00029988BB1837612C029988BB187720EC026
:104F00008BB187700BC029988BB1837F07C029981C
:104F10008BB1837003C029988BB183738BB9709266
:104F2000BC008091BC0087FFFCCF8091BB00833325
:104F3000D1F0843340F4813391F0823390F48033A4
:104F400009F0F5C10AC0853391F0853370F08633DE
:104F500081F0873309F0EBC10EC02C98E8C12B9883
:104F6000E6C12A98E4C12898E2C14298E0C141987C
:104F7000DEC14098DCC12D98DAC18DEF93E00E942C
:104F8000F42CEA968FAFEA9700E1D02ECC24C3949C
:104F900017E2812EB4E99B2E80917000816080938E
:104FA000700080916F00816080936F000E9489186B
:104FB000C092B1008091B60080FDFCCFC09281000C
:104FC000D092660080E00E94AD187B018C01EA96C9
:104FD0009FADEA97909366000E94891880917000B7
:104FE0008E7F8093700080916F008E7F80936F0022
:104FF000E4EAE093BC008091BC0087FFFCCFF2E0C4
:10500000F093BB007092BC008091BC0087FFFCCF86
:105010008091B900883161F7D092BB007092BC00DA
:105020008091BC0087FFFCCF2DEDE21625E0F20653
:1050300020E0020720E01207BCF4BB2717FDBA9559
:10504000A12F902F8F2D8093BB007092BC00809178
:10505000BC0087FFFCCFE092BB007092BC00809147
:10506000BC0087FFFCCF10C08092BB007092BC00D8
:105070008091BC0087FFFCCF1092BB007092BC00F7
:105080008091BC0087FFFCCF9092BC00D39431EF9D
:10509000D31609F081CF44EA4093BC008091BC0054
:1050A00087FFFCCF82E08093BB007092BC008091B0
:1050B000BC0087FFFCCF8091B900883161F78EEF8B
:1050C0008093BB007092BC008091BC0087FFFCCF36
:1050D0008FEF8093BB007092BC008091BC0087FF73
:1050E000FCCF25C18E85813009F0EECB8BEF93E0AC
:1050F0000E94F42C813021F08BEF93E061E02AC014
:105100008BEF93E06FEF26C094EA9093BC00809100
:10511000BC0087FFFCCFE2E0E093BB007092BC00D4
:105120008091BC0087FFFCCF8091B900883161F786
:105130008CEF93E00E94F42C8093BB007092BC0033
:105140008091BC0087FFFCCF84E98093BC008CEF8A
:1051500093E060E00E94FC2CB7CB80E090E00E94DE
:10516000F42C182F81E090E00E94F42CCF57DF4FF1
:105170001883C158D040C058DF4F1882C058D04063
:10518000C058DF4FC880D980C058D040C80ED11C4D
:1051900005E010E0FF2408C0C8010E94F42C882319
:1051A00009F4F3940F5F1F4FC016D106ACF7F4EA71
:1051B000F093BC008091BC0087FFFCCF22E02093DD
:1051C000BB007092BC008091BC0087FFFCCF809137
:1051D000B900883161F7FA94F092BB007092BC007C
:1051E0008091BC0087FFFCCF84E98093BC0034EA47
:1051F0003093BC008091BC0087FFFCCF43E040931C
:10520000BB007092BC008091BC0087FFFCCF8091F6
:10521000B900803461F77092BC008091BC0087FFB8
:10522000FCCFE090BB0084E98093BC00EE2011F439
:10523000EE24E39405E010E0FF24F394FE1449F01B
:10524000C8010E94F42C882309F4F3940F5F1F4FC8
:10525000F5CF84EA8093BC008091BC0087FFFCCF2F
:1052600092E09093BB007092BC008091BC0087FFDD
:10527000FCCF8091B900883161F7C8010E94F42CFD
:105280008093BB007092BC008091BC0087FFFCCF74
:105290000F5F1F4FC8010E94F42C882371F71092F2
:1052A000BB007092BC008091BC0087FFFCCF3FC068
:1052B000E4EAE093BC008091BC0087FFFCCFF2E001
:1052C000F093BB007092BC008091BC0087FFFCCFC4
:1052D0008091B900883161F700E012E0C8010E94B6
:1052E000F42C8093BB007092BC008091BC0087FFBF
:1052F000FCCF0F5F1F4F23E0073F120779F78EEFB8
:1053000093E00E94F42C8093BB007092BC008091CB
:10531000BC0087FFFCCF8FEF93E00E94F42C8093BA
:10532000BB007092BC008091BC0087FFFCCF84E979
:105330008093BC00C9CA20E030E0EEE0F0E0EC0F62
:10534000FD1FE20FF31F8081F901EB51FE4F8083B7
:105350002F5F3F4F2830310581F7B6CA8E85809385
:10536000E5018F858093E60188898093E70189892B
:1053700029C08E8580934D022F8580E090E0FC014E
:10538000EB51FE4F1082019688309105C1F723370B
:1053900029F480914D020E941B0196CA253709F01D
:1053A00093CA80914D020E9452018ECA8E858093CD
:1053B000E5018F858093E6018091E5018093E70107
:1053C0008091E6018093E8011092E9011092EA01D0
:1053D0001092EB011092EC0177CA20E030E047E038
:1053E00050E0FA01E21BF30BAEE0B0E0AC0FBD1FE2
:1053F000A20FB31F8C91E155FE4F80832F5F3F4F6B
:105400002830310571F720E030E0F901E155FE4F19
:105410008081F901EB51FE4F80832F5F3F4F283091
:10542000310599F732E03093B100809170008160CE
:105430008093700081E080935602850191E00C9486
:10544000E91C8E85853311F1863338F4813309F4F4
:10545000E7C0833309F0E2C009C0873309F46FC0A5
:105460008733D8F1883309F0D9C098C020E030E004
:10547000F901E155FE4F8081F901EB51FE4F808328
:105480002F5F3F4F2830310599F7C8C08091AF0199
:10549000893320F48091AF018F5F58C040E340937F
:1054A000AF018091B001853320F48091B0018F5F0E
:1054B0005AC080E38093B0018091B201893308F42F
:1054C00071C090E39093B2018091B301853308F4E9
:1054D00076C0E0E3E093B301A3C08091B2018133D1
:1054E00008F04BC089E38093B2018091B30181330E
:1054F00008F04DC085E38093B3018091B6018033FD
:1055000089F0803308F48CC0833308F089C080911F
:10551000B501813358F483E38093B5018091B601DE
:10552000815069C08091B501813320F08091B5012F
:1055300081506BC083E38093B50182E35CC08091AE
:10554000AF01813330F08091AF0181508093AF0182
:1055500067C029E32093AF018091B001813330F01F
:105560008091B00181508093B0015AC095E390932F
:10557000B0018091B201813320F08091B20181505D
:1055800014C02093B2018091B301813320F0809147
:10559000B301815017C09093B30142C08091B20112
:1055A000893330F48091B2018F5F8093B20138C0AB
:1055B000F0E3F093B2018091B301853330F4809130
:1055C000B3018F5F8093B3012BC020E32093B3011D
:1055D0008091B601803320F1823318F0823301F5D7
:1055E0000DC08091B501893368F030E33093B50187
:1055F0008091B6018F5F8093B60112C08091B50192
:10560000833330F48091B5018F5F8093B50108C07A
:1056100040E34093B5014093B60102C090E001C061
:1056200091E081E0809356020C94E81C2E8580E086
:1056300090E0FC01E65AFD4F30E33083019688305C
:105640009105B9F7223341F442E04093560210929B
:105650005C0210925F0207C083E0809356021092B2
:105660005B0210925E021092B20092E09093B10041
:105670008091700081608093700011E0CC24DD2463
:10568000EE24FF248824992404E901C011E0E4EA0F
:10569000E093BC008091BC0087FFFCCFF3E0F09367
:1056A000BB007092BC008091BC0087FFFCCF809152
:1056B000B900803409F447C08091B2002091AA015A
:1056C0003091AB0190E08217930709F78091AA010E
:1056D0009091AB01899660E071E00E94902C9093CC
:1056E000AB018093AA01809156028230B9F08330D9
:1056F000B9F4C158DF4F2881CF57D0402F5FC15830
:10570000DF4F2883CF57D0402A3051F40E94AA0996
:10571000C158DF4F1882CF57D04002C00E94AA095B
:10572000113009F0B4CF20E030E0F901E65AFD4F26
:105730008081F901EB51FE4F80832F5F3F4F28306E
:10574000310599F7A4CF34EC3093BC008091BC00B4
:1057500087FFFCCF8091BB0044EC4093BC0080915C
:10576000BC0087FFFCCF8091BB008093A9017092A1
:10577000BC008091BC0087FFFCCF9091BB000093E0
:10578000BC008091A9018A3089F41092B100809107
:1057900070001092700080E090E0FC01EB51FE4F31
:1057A0001082019688309105C1F78EC8923361F05E
:1057B000933320F4913309F06ACF68CF933381F1AA
:1057C000943309F064CF4AC020E030E0F901E65A92
:1057D000FD4F8081F901EB51FE4F80832F5F3F4FDA
:1057E0002830310599F7A8E1B0E0AC0FBD1FAC0D32
:1057F000BD1D20E030E0F901EB51FE4F80818D931B
:105800002F5F3F4F28303105B1F7C601089660E59C
:1058100070E00E94902C6C010894811C911C41C086
:1058200080E090E0FC01E65AFD4F20E320830196E2
:1058300088309105B9F780915602823021F4109298
:105840005C0210925F0280915602833021F4109224
:105850005B0210925E021092B20018CF8114910484
:1058600009F415CFA8E1B0E0AC0FBD1FAE0DBF1D10
:1058700020E030E08D91F901EB51FE4F80832F5FE6
:105880003F4F28303105B1F7C70108963AE083163B
:10589000910414F4B60102C060E570E00E94902CFF
:1058A0007C0110E0F4CE8501ED969FAEED970DC81A
:1058B000629FD001739FF001829FE00DF11D649FF4
:1058C000E00DF11D929FF00D839FF00D749FF00D80
:1058D000659FF00D9927729FB00DE11DF91F639F21
:1058E000B00DE11DF91FBD01CF0111240895991BD1
:1058F00079E004C0991F961708F0961B881F7A95C7
:10590000C9F78095089587FB082E062687FD8195A7
:1059100067FD6195ECDF0EF4919507FC8195089584
:1059200097FB092E07260AD077FD04D049D006D070
:1059300000201AF4709561957F4F0895F6F79095C1
:1059400081959F4F0895A1E21A2EAA1BBB1BFD0152
:105950000DC0AA1FBB1FEE1FFF1FA217B307E4074E
:10596000F50720F0A21BB30BE40BF50B661F771FA6
:10597000881F991F1A9469F7609570958095909586
:105980009B01AC01BD01CF01089597FB092E0526AF
:105990000ED057FD04D0D7DF0AD0001C38F4509544
:1059A0004095309521953F4F4F4F5F4F0895F6F743
:1059B00090958095709561957F4F8F4F9F4F08957B
:1059C000AA1BBB1B51E107C0AA1FBB1FA617B70725
:1059D00010F0A61BB70B881F991F5A95A9F7809541
:1059E0009095BC01CD010895F999FECF92BD81BD7E
:1059F000F89A992780B50895262FF999FECF1FBAF6
:105A000092BD81BD20BD0FB6F894FA9AF99A0FBEE7
:085A100001960895F894FFCF00
:105A18004F533A204932435F5631305F305F43413C
:105A28000D0A00535720696E666F726D6174696F55
:105A38006E3A204F7065726174696E67207379736E
:105A480074656D204932435F5631305F305F4341A2
:105A5800202050726F6A656374732056315F33205B
:105A6800616E6420426F6F746C6F6164657220565A
:105A7800345F32315F43412E20287A65726F5F535D
:105A880055542026206175746F20636C6F636B20FA
:105A98007265636F76657279292020204578746570
:105AA800726E616C2070726F6772616D6D657220C5
:0C5AB80056325F3239410D0A000129000E
