:100000000C9434000C9451000C9451000C94510049
:100010000C9451000C9451000C9451000C9451001C
:100020000C9451000C9451000C9451000C9451000C
:100030000C9451000C94BF020C9451000C9451008C
:100040000C9451000C9451000C9451000C945100EC
:100050000C9451000C9451000C9451000C945100DC
:100060000C9441020C94510011241FBECFEFD4E038
:10007000DEBFCDBF12E0A0E0B1E0EAE9FCE002C0E3
:1000800005900D92A63AB107D9F723E0A6EAB2E0AF
:1000900001C01D92A630B207E1F70E9421030C9423
:1000A0004B060C94000086BD85E085BDA89BFECF65
:1000B000A89A15BC0895CF93C82F85E48093BC00FF
:1000C00010920503109204031092FF021092000395
:1000D0001092010310920203809104039091050392
:1000E0000F97D4F310920503109204031092BC00F2
:1000F0006091FF02709100038091010390910203CF
:1001000097FF07C090958095709561957F4F8F4FB1
:100110009F4F2AE030E040E050E00E940A06CC23E6
:1001200099F0E091FD02F091FE02EE0FFF1FE55500
:10013000FD4F318320838091FD029091FE02019654
:100140009093FE028093FD02CA01B901CF910895F8
:1001500084E88093BC008091BC0087FFFCCF809135
:10016000BB00089584EC8093BC008091BC0087FFA5
:10017000FCCF8091BB0008958093BB0084E88093FE
:10018000BC008091BC0087FFFCCF08958093BB002A
:1001900084EC8093BC008091BC0087FFFCCF089565
:1001A00084E48093BC008091BC0087FFFCCF8091E9
:1001B000BB0080E00E94C60085E50E94BC0080E88C
:1001C0008093BC000895CF92DF92EF92FF920F933D
:1001D0001F93CF93DF93C82F062F142FD52F84E4BE
:1001E0008093BC008091BC0087FFFCCF8091BB0056
:1001F0008C2F0E94C600802F0E94C600E12EFD2E8B
:1002000010E000E00C2E000CDD0B6E0181E0C81A3E
:10021000D1080C171D0774F4F70181917F01C016F6
:10022000D10629F40E94BC000F5F1F4FF2CF0E943D
:10023000C600FACF80E88093BC00DF91CF911F9178
:100240000F91FF90EF90DF90CF9008959091C000B4
:1002500095FFFCCF8093C60008954F925F926F92F6
:100260007F928F929F92AF92BF92CF92DF92EF9246
:10027000FF920F931F93CF93DF93CDB7DEB72C97E9
:100280000FB6F894DEBF0FBECDBF4A015B018E01F1
:100290000F5F1F4F9E01235F3F4FF8011192E2173E
:1002A000F307E1F7B501A401B7FE07C044275527BE
:1002B000BA01481959096A097B09A42FF52FE62FBD
:1002C000972F6801F12CE12C482E880F55086608FD
:1002D00077086A2F7F2F8E2FA30192010E940A06B2
:1002E000F60160836A304CF5605D6083FFEFEF1AC2
:1002F000FF0AA22FF32FE42F952F8FEFC81AD80AE9
:10030000232B242B252B29F7B7FE05C0F801EE0D72
:10031000FF1D8DE28083F8017F01E01AF10A8191CF
:100320008111FACFE00EF11EE016F10641F0F7015F
:1003300082917F010E942601F7CF695CD6CF2C966F
:100340000FB6F894DEBF0FBECDBFDF91CF911F91E6
:100350000F91FF90EF90DF90CF90BF90AF909F9064
:100360008F907F906F905F904F9008950F931F93A1
:10037000CF93DF93EC018C0108531F4F89918823A1
:1003800029F00E942601C017D107C1F7DF91CF9154
:100390001F910F91089581E791E00C94B60180912F
:1003A000C00087FFFCCF8091C6000895CF92DF92F6
:1003B000EF92FF92CF93DF930E94CF01C82F80333B
:1003C00034F08A3334F08FEB8C0F863010F0CD325E
:1003D00099F70E94CB018C2F0E942601C12CD12CB1
:1003E0007601CD3261F080ED8C0F8A3014F089EC0B
:1003F0008C0FC82E880FDD08EE08FF08CBE20E94A4
:10040000CF01D82F8D3011F08A30F1F481E49FE1D3
:100410002091C00027FD15C00197D1F7CD3241F4DE
:10042000F094E094D094C094C11CD11CE11CF11C48
:10043000C701B601DF91CF91FF90EF90DF90CF9091
:1004400008958091C600EACF8033CCF28A3324F03D
:100450008FEB8D0F863098F68D2F0E94260180ED50
:100460008D0F8A3010F089EC8D0F94E0CC0CDD1CE0
:10047000EE1CFF1C9A95D1F7C80ED11CE11CF11C93
:10048000BECF1F920F920FB60F9211242F933F935E
:100490004F935F936F937F938F939F93AF93BF938C
:1004A000EF93FF938091BB0081E00E94BC0080E845
:1004B0008093BC001092810040918400509185008F
:1004C000109285001092840021E0209381002091F9
:1004D00004033091050325303105FCF41092030329
:1004E00080910403909105030196909305038093F6
:1004F000040385E48093BC00FF91EF91BF91AF911D
:100500009F918F917F916F915F914F913F912F912B
:100510000F900FBE0F901F90189570E060E08091D3
:1005200003038823D9F0109203038091FF02909176
:100530000003A0910103B0910203840F951FA61F31
:10054000B71F8752944FAF4FBF4F8093FF029093D6
:100550000003A0930103B0930203C2CF8091FF0276
:1005600090910003A0910103B0910203840F951FA5
:10057000A61FB71F8452944FA109B109E6CF1F925D
:100580000F920FB60F9211248F93809103038F5F08
:10059000809303038F910F900FBE0F901F901895BB
:1005A000CF92DF92EF92FF920F931F93CF93DF933F
:1005B00000D0CDB7DEB789831A82AE014F5F5F4F9F
:1005C00060E581E00E94E30084E48093BC008091B8
:1005D000BC0087FFFCCF8091BB000E94B200182FA7
:1005E0000E94B200105300ED080F8AE0189F000D22
:1005F0001124F12CE12C002E000C110B680181E07C
:10060000C81AD108E016F10674F4CE14DF0441F4E0
:100610000E94A8000E9426018FEFE81AF80AF2CF84
:100620000E94B200F7CF80E88093BC000F900F903B
:10063000DF91CF911F910F91FF90EF90DF90CF90BE
:100640000895CF93DF9300D000D0CDB7DEB784B745
:10065000A89584B7877F84BF80916000886180936C
:1006600060001092600082E08093BA0080917C006C
:10067000806480937C0085B78F7E85BF8AB18B773D
:100680008AB98BB184688BB926982E9A85B78F7EEC
:1006900085BF84B18B7784B987B1887F87B98AB1E8
:1006A00087788AB985B1846885B988B1876088B947
:1006B0008BB188678BB9609166008DEF91E00E94E5
:1006C000FC05499BFECF8CED0E9453008EEF91E01C
:1006D0000E94F405182F80EF810F803E40F48FEFC9
:1006E00091E00E94F405181302C010936600109266
:1006F000C1001092C50080E18093C40082E0809325
:10070000C00088E18093C10086E08093C20082EB44
:100710000E9453001E9911C181E08983AE014F5F91
:100720005F4F61E581E00E94E30084E48093BC00B8
:100730008091BC0087FFFCCF8091BB0080E00E94CD
:10074000C60086E50E94BC0084E88093BC008091CE
:10075000BC0081648093BC0084E48093BC008091E1
:10076000BC0087FFFCCF8091BB000E94A8008130B5
:1007700009F04EC180E88093BC0080E091E00E94C7
:10078000B6010E94CF01823309F440C10CF0D7C0FA
:10079000813309F437C18DEF91E00E94F405182FE1
:1007A0008093AA02009166000093A90284E791E079
:1007B0000E94B601402F50E070E060E080E10E94AE
:1007C0002D010E94CB0182EB91E00E94B601412FE6
:1007D00050E070E060E080E10E942D010E94CB01BA
:1007E0008FEC91E00E94B60180916F008160809350
:1007F0006F000E94D00084E48093BC008091BC0014
:1008000087FFFCCF8091BB0081E00E94BC0080E8A4
:100810008093BC00109285001092840081E0809348
:10082000810078948091660084518093660009E28B
:1008300010E081E00E945B00809166008F5F8093F2
:10084000660001501109A9F78091A9028093660002
:1008500084E48093BC008091BC0087FFFCCF809132
:10086000BB0080E00E94BC0080E88093BC00F8944C
:1008700080916F008E7F80936F008BEAE82E82E07C
:10088000F82E10E000E091E7892E92E0992EA12C3D
:10089000B12C4091A9024451550B400F511F052E18
:1008A000000C660B770B80E10E942D018AE892E034
:1008B0000E94B601F701419051907F01052C000C78
:1008C00066087708B301A2018AE00E942D018AE838
:1008D00092E00E94B601C301B201A50194010E94F9
:1008E0000A06BA01A9018AE00E942D0185E20E9450
:1008F00026010E94CB010F5F1F4F0932110549F6F7
:100900008CEF91E00E94B6010E94D6016093A8028C
:1009100089E392E00E94B6010E94CF01893709F471
:100920007BC00E94CB018FE30E9426010E94D6016A
:100930006093A8028BE592E0EDCF1982EFCE04E43C
:1009400010E8833309F431C1843309F024CF0EE970
:1009500012E6F12EEE24EA9483E0D82E8CEF91E09B
:100960000E94F405182F8BEF91E00E94F405212FCF
:1009700030E0322F2227820F932F911D5C01B69415
:10098000A7949C013695279536952795BC01E3E001
:1009900076956795EA95E1F726273727282739279F
:1009A000F5E096958795FA95E1F7822793279927A1
:1009B000869597958827A82AB92A6B2D8CEF91E008
:1009C0000E94FC056A2D8BEF91E00E94FC05C50199
:1009D000880F991FA982BA828B839C83AE014F5FD7
:1009E0005F4F61E084E00E94E30000938500F09295
:1009F0008400E6BAD0928100B09BFECFB09A1092EC
:100A00008100ACCF80E30E94D002C5CE81E3FBCF52
:100A100080E88093BC00BFCE8091A8028F3FA9F4EC
:100A20006FEF8EEF91E00E94FC056FEF8FEF91E08A
:100A30000E94FC0588E199E00FB6F894A895809390
:100A400060000FBE90936000FFCF8093660080919E
:100A50006F00816080936F000E94D00084E48093D7
:100A6000BC008091BC0087FFFCCF8091BB0081E07F
:100A70000E94BC0080E88093BC0010928500109218
:100A8000840081E080938100789480E00E945B0084
:100A90004B0184E48093BC008091BC0087FFFCCFB5
:100AA0008091BB0080E00E94BC0080E88093BC0085
:100AB00080916F008E7F80936F00F8948091A902DF
:100AC00080936600092C000CAA08BB08F9EE8F166B
:100AD000F3E09F06A104B10414F10E94CB01B5011B
:100AE000A4018AE00E942D018FE592E00E94B601E8
:100AF0000E94CB016FEF8EEF91E00E94FC056FEF3B
:100B00008FEF91E00E94FC0588E199E00FB6F89420
:100B1000A895809360000FBE90936000FFCF609116
:100B2000A8028EEF91E00E94FC056091A8028FEF71
:100B300091E00E94FC0582E792E00E94B6018EEFF0
:100B400091E00E94F405482F50E070E060E080E101
:100B50000E942D018FE892E00E94B6018FEF91E094
:100B60000E94F405482F50E070E060E080E10E94B0
:100B70002D0184E992E00E94B6010E94CF0188E134
:100B800099E00FB6F894A895809360000FBE9093FB
:100B90006000FFCF0E94A8001093BC000E94CB0110
:100BA0000E94CF01883709F4F6CD0093BC008091F4
:100BB000BC0087FFFCCF8091BB0080E00E94C60094
:100BC00088E40E94BC001093BC000093BC0080919C
:100BD000BC0087FFFCCF8091BB000E94B20088233D
:100BE000C9F20E942601F9CFF999FECF92BD81BDCD
:100BF000F89A992780B50895262FF999FECF1FBA44
:100C000092BD81BD20BD0FB6F894FA9AF99A0FBE35
:100C100001960895052E97FB1EF400940E9421066C
:100C200057FD07D00E94290607FC03D04EF40C9410
:100C3000210650954095309521953F4F4F4F5F4F7E
:100C4000089590958095709561957F4F8F4F9F4F38
:100C50000895A1E21A2EAA1BBB1BFD010DC0AA1FFD
:100C6000BB1FEE1FFF1FA217B307E407F50720F015
:100C7000A21BB30BE40BF50B661F771F881F991F90
:100C80001A9469F760957095809590959B01AC01D9
:0A0C9000BD01CF010895F894FFCFD5
:100C9A000D0A50726573730D0A3120666F72204F08
:100CAA00532076657273696F6E0D0A3220666F7211
:100CBA002073797374656D20646174610D0A332041
:100CCA004D6573736167652066726F6D2074686520
:100CDA00204F5320287820746F20657363617065F4
:100CEA00290D0A342044656661756C742070726F30
:100CFA006A6563740D0A3020746F206573636170CE
:100D0A00650D0A000D0A41544D45474120313638D8
:100D1A00206D616E75616C2063616C6962726174C9
:100D2A00696F6E0D0A43616C20666163746F72208D
:100D3A00776F726B696E672076616C75652020200B
:100D4A00090043616C20666163746F722064656692
:100D5A0061756C742076616C7565202020090044E9
:100D6A006F696E672063616C63756C6174696F6E1D
:100D7A00732E20506C656173652077616974203128
:100D8A0030207365636F6E64730D0A00456E746577
:100D9A0072206E657720757365722063616C2076A8
:100DAA00616C75650D0A6F7220656E7465722046F6
:100DBA004620746F2064656C6574652074686520CC
:100DCA00757365722063616C000D0A5072657373E6
:100DDA002079206966204F4B206F7220414F4B20AB
:100DEA00616E64207265706561740020793F00202D
:100DFA00204572726F7220746F6F2067726561741A
:100E0A0021000D0A56616C756573207361766564FD
:100E1A0020746F20454550524F4D20202009002054
:100E2A00202020000D0A414B20746F2072657065E6
:060E3A0061740D0A0000C6
:00000001FF
