:020000040000FA
:100000000C9434000C9451000C9451000C94510049
:100010000C9451000C9451000C9451000C9451001C
:100020000C9451000C9451000C9451000C9451000C
:100030000C9451000C94EB020C9451000C94510060
:100040000C9451000C9451000C9451000C945100EC
:100050000C9451000C9451000C9451000C945100DC
:100060000C945D020C94510011241FBECFEFD4E01C
:10007000DEBFCDBF11E0A0E0B1E0E2EBFCE002C0EA
:1000800005900D92AE3EB107D9F721E0AEEEB1E09A
:1000900001C01D92AB3FB207E1F70E9457030C94D9
:1000A00057060C94000086BD85E085BDA89BFECF59
:1000B000A89A15BC089585E48093BC001092F901BC
:1000C0001092F8011092F3011092F4011092F501D0
:1000D0001092F6018091F8019091F9010F97D4F3F5
:1000E0001092F9011092F8011092BC006091F30196
:1000F0007091F4018091F5019091F60197FF07C08E
:1001000090958095709561957F4F8F4F9F4F2AE016
:1001100030E040E050E00E940206CA01B9010895B3
:10012000CF92DF92EF92FF92CF93DF93C82F80930D
:1001300066000E945B006B017C01809166008F5F0E
:10014000809366000E945B00C616D706E806F90693
:100150003CF5809166008150809366002091660096
:100160000C2E000CDD0B2C171D0689F48091660007
:100170008150809366000E945B00C616D706E80691
:10018000F906B4F4809166008F5F80936600C70122
:10019000B601DF91CF91FF90EF90DF90CF9008955F
:1001A000209166002F5F209366006B017C01CACF0F
:1001B000209166002150209366006B017C01DBCF0B
:1001C00085E48093BC001092F9011092F80110921E
:1001D000F3011092F4011092F5011092F601809152
:1001E000F8019091F9010297D4F31092F90110925D
:1001F000F8011092BC006091F3017091F4018091BC
:10020000F5019091F60197FF07C090958095709544
:1002100061957F4F8F4F9F4F089584E88093BC0076
:100220008091BC0087FFFCCF8091BB000895809334
:10023000BB0084E88093BC008091BC0087FFFCCFAA
:1002400008958093BB0084EC8093BC008091BC0037
:1002500087FFFCCF089584E48093BC008091BC00AC
:1002600087FFFCCF8091BB0080E00E94210185E5E3
:100270000E94170180E88093BC000895CF92DF921E
:10028000EF92FF920F931F93CF93DF93C82F062F08
:10029000142FD52F84E48093BC008091BC0087FF8D
:1002A000FCCF8091BB008C2F0E942101802F0E94E7
:1002B0002101E12EFD2E10E000E00C2E000CDD0BE4
:1002C0006E0181E0C81AD1080C171D0774F4F701FC
:1002D00081917F01C016D10629F40E9417010F5F9A
:1002E0001F4FF2CF0E942101FACF80E88093BC001B
:1002F000DF91CF911F910F91FF90EF90DF90CF9002
:1003000008959091C00095FFFCCF8093C60008959A
:100310004F925F926F927F928F929F92AF92BF9215
:10032000CF92DF92EF92FF920F931F93CF93DF93C1
:10033000CDB7DEB72C970FB6F894DEBF0FBECDBF9A
:100340004A015B018E010F5F1F4F81149104A104CC
:1003500090E8B906D9F58A30A9F0803141F1F80169
:100360007F01E01AF10A81918111FACFE00EF11EAE
:10037000E016F10609F46EC0F70182917F010E9438
:100380008101F6CF98E3998384E38A8326E32B8364
:1003900023E32C839D838E8397E39F83888781E368
:1003A000898782E38A878DE28B871C86D8CF80E39A
:1003B00089838A838B838C838D838E838F8388E369
:1003C00088878DE289871A861B86EFCF68019E0198
:1003D000235F3F4FF8011192E217F307E1F7B501F0
:1003E000A401B7FE07C044275527BA014819590987
:1003F0006A097B09A42FF52FE62F972FF12CE12C0A
:10040000482E880F5508660877086A2F7F2F8E2F91
:10041000A30192010E940206F60160836A30C4F4CF
:10042000605D6083FFEFEF1AFF0AA22FF32FE42F26
:10043000952F8FEFC81AD80A232B242B252B29F7A9
:10044000B7FE8DCFF801EE0DFF1D8DE2808387CFC3
:10045000695CE7CF2C960FB6F894DEBF0FBECDBF18
:10046000DF91CF911F910F91FF90EF90DF90CF9090
:10047000BF90AF909F908F907F906F905F904F90C4
:1004800008950F931F93CF93DF93EC018C010853D2
:100490001F4F8991882329F00E948101C017D1073D
:1004A000C1F7DF91CF911F910F9108958091C00006
:1004B00087FFFCCF8091C60008951F920F920FB660
:1004C0000F9211242F933F934F935F936F937F93DA
:1004D0008F939F93AF93BF93EF93FF938091BB0054
:1004E00081E00E94170180E88093BC001092810097
:1004F0008091840090918500109285001092840074
:1005000021E0209381004091F8015091F901209160
:10051000FA01022E000C330B42175307FCF4109221
:10052000F7018091F8019091F90101969093F901FA
:100530008093F80185E48093BC00FF91EF91BF9117
:10054000AF919F918F917F916F915F914F913F916B
:100550002F910F900FBE0F901F901895B0E0A0E064
:100560002091F7012130E9F0223041F12111D7CF5C
:100570004091F3015091F4016091F5017091F60101
:100580008452944FA109B109840F951FA61FB71F6C
:100590008093F3019093F401A093F501B093F601D9
:1005A000BECF4091F3015091F4016091F50170913B
:1005B000F6018452944FAF4FBF4FE6CF4091F30105
:1005C0005091F4016091F5017091F6018452944FBD
:1005D000AE4FBF4FD9CF1F920F920FB60F9211247B
:1005E0008F938091F7018F5F8093F7018F910F9028
:1005F0000FBE0F901F90189584EC8093BC008091E3
:10060000BC0087FFFCCF8091BB000895CF92DF92A2
:10061000EF92FF920F931F93CF93DF9300D0CDB74C
:10062000DEB789831A82AE014F5F5F4F60E581E0DC
:100630000E943E0184E48093BC008091BC0087FF4F
:10064000FCCF8091BB000E94FC02182F0E94FC028C
:10065000105300ED080F8AE0189F000D1124F12CB3
:10066000E12C002E000C110B680181E0C81AD108A2
:10067000E016F10674F4CE14DF0441F40E940D017B
:100680000E9481018FEFE81AF80AF2CF0E94FC0263
:10069000F7CF80E88093BC000F900F90DF91CF914F
:1006A0001F910F91FF90EF90DF90CF900895CF931F
:1006B000DF9300D000D0CDB7DEB784B7A89584B75C
:1006C000877F84BF80916000886180936000109272
:1006D000600082E08093BA0080917C008064809307
:1006E0007C0085B78F7E85BF8AB18B778AB98BB145
:1006F00084688BB926982E9A85B78F7E85BF84B182
:100700008B7784B987B1887F87B98AB187788AB9AE
:1007100085B1846885B988B1876088B98BB18867ED
:100720008BB9609166008DEF91E00E94E005499BD6
:10073000FECF8CED0E9453008EEF91E00E94D80511
:10074000182F80EF810F803E40F48FEF91E00E94E0
:10075000D805181302C0109366001092C1001092C1
:10076000C50080E18093C40082E08093C00088E1EE
:100770008093C10086E08093C20082EB0E94530008
:100780001E9978C181E08983AE014F5F5F4F61E5BB
:1007900081E00E943E0184E48093BC008091BC0013
:1007A00087FFFCCF8091BB0080E00E94210186E59D
:1007B0000E94170184E88093BC008091BC00816492
:1007C0008093BC0084E48093BC008091BC0087FFD0
:1007D000FCCF8091BB000E940D01813009F0B5C1B2
:1007E00080E88093BC0080E091E00E9441020E947A
:1007F0005602823309F4A7C10CF03EC1813309F4DB
:100800009EC180916F00816080936F000E942B01D8
:1008100084E48093BC008091BC0087FFFCCF809172
:10082000BB0081E00E94170180E88093BC00109219
:1008300085001092840081E08093810078948093F9
:10084000FA010FE010E00E94E00001501109D9F711
:1008500000E110E085E0A82EB12C00936600C801ED
:10086000B5010E94EE05892B19F48EE20E948101E8
:100870000E94E0006B017C0188EEC81683E0D80678
:10088000E104F1042CF00F5F1F4F013F110529F720
:1008900084E48093BC008091BC0087FFFCCF8091F2
:1008A000BB0080E00E94170180E88093BC00F894B0
:1008B00080916F008E7F80936F008EEA91E00E949E
:1008C000410284E791E00E9441024091660050E0BD
:1008D00070E060E080E10E94880188E891E00E9479
:1008E0004102B701A6018AE00E9488018EEA91E0E8
:1008F0000E94410285E08093FA0180916F0081603F
:1009000080936F000E942B0184E48093BC0080914F
:10091000BC0087FFFCCF8091BB0081E00E941701E3
:1009200080E88093BC00109285001092840081E0E2
:10093000809381007894809166000E9490006B0102
:100940007C0185EFC81681E0D806E104F104F4F0DB
:10095000809166008C5F0E9490006B017C0185EFA6
:10096000C81681E0D806E104F10484F080916600A5
:1009700082500E9490006B017C0185EFC81681E0D7
:10098000D806E104F10414F08091660084E48093B9
:10099000BC008091BC0087FFFCCF8091BB0080E051
:1009A0000E94170180E88093BC0082E991E00E94D8
:1009B00041024091660050E070E060E080E10E94FA
:1009C000880188E891E00E944102B701A6018AE00F
:1009D0000E9488018EE991E00E9441020E94560225
:1009E000893709F0B6C0609166006093F2018EEF1E
:1009F00091E00E94E00582EB0E9453006091F201B9
:100A00008FEF91E00E94E00582EB0E94530081EBA2
:100A100091E00E9441028EEF91E00E94D805482F9C
:100A200050E070E060E080E10E9488018BEC91E092
:100A30000E9441028FEF91E00E94D805482F50E0BC
:100A400070E060E080E10E9488018EEA91E00E94FF
:100A500041028CED91E00E9441020E94560288E121
:100A600099E00FB6F894A895809360000FBE90931C
:100A70006000FFCF198288CE04E410E8833309F4C4
:100A800078C0843309F0BDCE0EE9F2E6FF2EEE24E5
:100A9000EA94A3E0DA2E8CEF91E00E94D805182F9B
:100AA0008BEF91E00E94D805212F30E0322F2227D2
:100AB000820F932F911D5C01B694A7949C013695EB
:100AC000279536952795BC0153E0769567955A95FD
:100AD000E1F7262737272827392765E09695879558
:100AE0006A95E1F782279327992786959795882716
:100AF000A82AB92A6B2D8CEF91E00E94E0056A2D9F
:100B00008BEF91E00E94E005C501880F991FA98233
:100B1000BA828B839C83AE014F5F5F4F61E084E0BC
:100B20000E943E0100938500F0928400E6BAD092C4
:100B30008100B09BFECFB09A10928100ACCF80E3D1
:100B40000E9406035ECE81E3FBCF80E88093BC0069
:100B500058CE80ED91E07BCF0E940D011093BC0038
:100B60008EEA91E00E9441020E945602883709F401
:100B700048CE0093BC008091BC0087FFFCCF8091E1
:100B8000BB0080E00E94210188E40E9417011093BD
:100B9000BC000093BC008091BC0087FFFCCF80911B
:100BA000BB000E94FC028823B9F20E948101F9CFA8
:100BB000F999FECF92BD81BDF89A992780B5089525
:100BC000262FF999FECF1FBA92BD81BD20BD0FB669
:100BD000F894FA9AF99A0FBE0196089597FB072E9A
:100BE00016F4009407D077FD09D00E94210607FC77
:100BF00005D03EF4909581959F4F0895709561952D
:100C00007F4F0895052E97FB1EF400940E9419064D
:100C100057FD07D00E94350607FC03D04EF40C9414
:100C2000190650954095309521953F4F4F4F5F4F96
:100C3000089590958095709561957F4F8F4F9F4F48
:100C40000895AA1BBB1B51E107C0AA1FBB1FA61713
:100C5000B70710F0A61BB70B881F991F5A95A9F765
:100C600080959095BC01CD010895A1E21A2EAA1B92
:100C7000BB1BFD010DC0AA1FBB1FEE1FFF1FA2174C
:100C8000B307E407F50720F0A21BB30BE40BF50B49
:100C9000661F771F881F991F1A9469F760957095D2
:100CA000809590959B01AC01BD01CF010895F8940A
:100CB000FFCF0D0A50726573730D0A3120666F7293
:100CC000204F532076657273696F6E0D0A3220666D
:100CD0006F722073797374656D20646174610D0A9D
:100CE00033204D6573736167652066726F6D207484
:100CF0006865204F5320287820746F2065736361E6
:100D00007065290D0A342044656661756C74207025
:100D1000726F6A6563740D0A3020746F20657363A7
:100D20006170650D0A00417070726F782E206361EA
:100D30006C20666163746F722000202020457272FF
:100D40006F72200043616C20666163746F722000D3
:100D50000D0A536176653F2079206F7220414F4B19
:100D60000D0A0056616C75657320736176656420A9
:100D7000746F20454550524F4D20202000202020E8
:100D800020004E6F742073617665640D0A000D0AB1
:100D9000414B20746F207265706561740D0A00000C
:103800000C94341C0C94511C0C94511C0C94511CA1
:103810000C94511C0C94511C0C94511C0C94511C74
:103820000C94511C0C94511C0C94511C0C94511C64
:103830000C94511C0C94511C0C94511C0C94511C54
:103840000C94511C0C94511C0C94511C0C94511C44
:103850000C94511C0C94511C0C94511C0C94511C34
:103860000C94511C0C94511C11241FBECFEFD4E0BA
:10387000DEBFCDBF11E0A0E0B1E0E4EAFFE302C0AB
:1038800005900D92A230B107D9F712E0A2E0B1E0A5
:1038900001C01D92AD30B107E1F70E94361D0C94B6
:1038A000D01F0C94001C982F9595959595959595FE
:1038B000905D8F708A307CF0282F295A8091C0004B
:1038C00085FFFCCF9093C6008091C00085FFFCCFA0
:1038D0002093C6000895282F205DF0CF982F809167
:1038E000C00085FFFCCF9093C6000895EF92FF9231
:1038F0000F931F93EE24FF2487018091C00087FD62
:1039000017C00894E11CF11C011D111D81E4E8168B
:1039100082E4F8068FE0080780E0180770F3E09172
:103920000401F091050109958091C00087FFE9CF5E
:103930008091C6001F910F91FF90EF9008950E9413
:10394000761C982F8091C00085FFFCCF9093C60015
:1039500091362CF490330CF09053892F089597559D
:10396000892F08951F930E949F1C182F0E949F1C4F
:103970001295107F810F1F910895882351F0982F81
:1039800091508091C00087FFFCCF8091C6009923A1
:10399000B9F708951F93182F0E94761C803249F0C2
:1039A000809103018F5F809303018530C1F01F91E7
:1039B00008958091C00085FFFCCF84E18093C6000C
:1039C0008091C00085FFFCCF1093C6008091C0009D
:1039D00085FFFCCF80E18093C6001F910895E091A0
:1039E0000401F091050109951F9108950E94761C2C
:1039F000803241F0809103018F5F80930301853015
:103A000081F008958091C00085FFFCCF84E1809310
:103A1000C6008091C00085FFFCCF80E18093C60086
:103A20000895E0910401F09105010995089510921F
:103A30000A028823D1F090E040E951E02D9A28EE67
:103A400033E0FA013197F1F721503040D1F72D984A
:103A500028EE33E0FA013197F1F721503040D1F7E9
:103A60009F5F981758F380930A0208953F924F92F0
:103A70005F926F927F928F929F92AF92BF92CF92FE
:103A8000DF92EF92FF920F931F93CF93DF9300008B
:103A900083E38093C4001092C50088E18093C10045
:103AA00086E08093C2005098589A259A81E00E943F
:103AB000171D44E1F42E3EE1E32E24E9D22E96E0D8
:103AC000C92E80E1B82EAA24A39401E4902E16E515
:103AD000812EB2E57B2EA0E26A2EF9E45F2EE3E5AB
:103AE0004E2E70E5372E0E94761C8033B1F1813363
:103AF00009F441C0803409F479C0813409F48CC0E0
:103B0000823471F1853409F47BC0803531F182351E
:103B100021F1813511F1853509F48DC0863509F41F
:103B20009DC0843609F4AEC0843709F41BC18537C3
:103B300009F485C1863709F47AC0809103018F5F4B
:103B400080930301853079F6E0910401F09105013D
:103B500009950E94761C803351F60E94F61CC3CF53
:103B600093E18091C00087FFFCCF8091C60099232C
:103B7000A1F39150F6CF0E94761C8032F1F680912D
:103B8000C00085FFFCCFF092C6008091C00085FF89
:103B9000FCCF9092C6008091C00085FFFCCF809240
:103BA000C6008091C00085FFFCCF7092C600809156
:103BB000C00085FFFCCF6092C6008091C00085FFE9
:103BC000FCCF5092C6008091C00085FFFCCF409290
:103BD000C6008091C00085FFFCCF3092C600809166
:103BE000C00085FFFCCFB092C6007DCF0E94761C3E
:103BF000863808F4B2CF0E94761C0E94F61C73CF60
:103C000094E08091C00087FFFCCF8091C60099238B
:103C100009F4A3CF9150F5CF0E94761C8038D1F0E3
:103C2000813861F1823809F499C0883979F080E0EF
:103C30000E94CA1C58CF0E94761C809306010E94E5
:103C4000761C809307010E94F61C4DCF83E00E94F2
:103C5000CA1C49CF82E00E94CA1C45CF0E94761C34
:103C6000803309F486C192E08091C00087FFFCCFC9
:103C70008091C6009923D9F29150F6CF81E00E943D
:103C8000CA1C31CF0E94761C809309020E94761CC8
:103C90008093080280910C028E7F80930C020E9418
:103CA000761C853429F480910C02816080930C028B
:103CB0008091080290910902892B89F000E010E0C0
:103CC0000E94761CF801E85FFE4F80830F5F1F4F54
:103CD00080910802909109020817190788F30E9441
:103CE000761C803209F029CF80910C0280FFD1C070
:103CF0004091060150910701440F551F5093070151
:103D000040930601A0910802B09109021097C9F0F2
:103D1000E8E0F1E09A01BD016E0F7F1FF999FECF37
:103D200032BD21BD819180BDFA9AF99A2F5F3F4F34
:103D3000E617F70799F74A0F5B1F50930701409367
:103D400006018091C00085FFFCCFF092C6008091F3
:103D5000C00085FFFCCFB092C600C5CE80E10E94B6
:103D6000CA1CC1CE0E94761C809309020E94761C58
:103D7000809308028091060190910701880F991F96
:103D800090930701809306010E94761C853409F404
:103D90007AC080910C028E7F80930C020E94761C68
:103DA000803209F0A0CE8091C00085FFFCCFF09258
:103DB000C600A0910802B09109021097B9F1809154
:103DC0000C02182F1170082F0270E0910601F0917B
:103DD00007019F012F5F3F4FB90140E050E01123E1
:103DE000B1F4002339F494918091C00085FFFCCF99
:103DF0009093C6004F5F5F4FCB010196F9014A17C0
:103E00005B0780F4BC012F5F3F4F112351F3F999F9
:103E1000FECFF2BDE1BDF89A90B58091C00085FF5C
:103E2000FCCFE6CF70930701609306018091C0003C
:103E300085FDD9CE8091C00085FFF8CFD4CE0E94F9
:103E4000761C803209F079CE8091C00085FFFCCFCE
:103E5000F092C6008091C00085FFFCCFE092C600C2
:103E60008091C00085FFFCCFD092C6008091C00039
:103E700085FFFCCFC092C6008091C00085FFFCCFBB
:103E8000B092C60030CE80910C02816080930C020B
:103E900085CF809107018823880F880B8A21809322
:103EA0000B028091060190910701880F991F909352
:103EB0000701809306018091080280FF09C080916C
:103EC00008029091090201969093090280930802DA
:103ED000F894F999FECF1127E0910601F0910701BE
:103EE000C8E0D1E08091080290910902103091F46D
:103EF0000091570001700130D9F303E0009357009F
:103F0000E8950091570001700130D9F301E1009369
:103F10005700E89509901990009157000170013001
:103F2000D9F301E000935700E8951395103498F009
:103F300011270091570001700130D9F305E000937B
:103F40005700E8950091570001700130D9F301E165
:103F500000935700E8953296029709F0C7CF1030CA
:103F600011F00296E5CF11248091C00085FFE9CEC3
:103F7000ECCE0E94761C0E94761C182F0E94761CA4
:103F8000112351F0113021F086E00E94CA1CABCD04
:103F900084E90E94CA1CA7CD8EE10E94CA1CA3CD51
:063FA000F894FFCF800041
:00000001FF
