:100000000C9434000C943E000C943E000C943E0082
:100010000C943E000C943E000C943E000C943E0068
:100020000C943E000C943E000C943E000C943E0058
:100030000C943E000C943E000C943E000C943E0048
:100040000C943E000C943E000C943E000C943E0038
:100050000C943E000C943E000C943E000C943E0028
:100060000C943E000C943E0011241FBECFEFD4E050
:10007000DEBFCDBF0E949E000C94ED010C940000E9
:100080008093BB0084EC8093BC008091BC0087FF10
:10009000FCCF0895DF92EF92FF920F931F93CF93BF
:1000A000DF9300D000D0CDB7DEB799838A837B83FE
:1000B0006C8384E48093BC008091BC0087FFFCCFFC
:1000C0008091BB0084E00E94400086E00E944000D6
:1000D000CE0101967C0110E000E084E8D82E0330C8
:1000E000110501F58C818093BB00D092BC008091FA
:1000F000BC0087FFFCCF0F5F1F4FFFEFEF1AFF0A17
:100100000430110561F780E88093BC000F900F90D8
:100110000F900F90DF91CF911F910F91FF90EF9073
:10012000DF900895F70180810E944000E4CF909114
:10013000C00095FFFCCF8093C6000895CF93DF9356
:10014000CDB7DEB72C970FB6F894DEBF0FBECDBF8C
:1001500084B7A89584B7877F84BF80916000886149
:10016000809360001092600082E08093BA008091DA
:100170007C00806480937C0085B78F7E85BF8AB1C8
:100180008B778AB98BB184688BB926982E9A83E0D5
:1001900084B985B78F7E85BF84B18B7784B987B1E9
:1001A000887F87B98AB187788AB985B1846885B92B
:1001B00088B1876088B98BB188678BB96091660018
:1001C0008DEF91E00E948401499BFECF85E090E095
:1001D00022EB35E026BD35BDA89BFECFA89A15BC05
:1001E0000197C1F78EEF91E00E947C01182F80EFFC
:1001F000810F803E40F48FEF91E00E947C01181344
:1002000002C0109366001092C1001092C50080E1F8
:100210008093C40082E08093C00088E18093C10095
:1002200086E08093C2008FE30E949700C12CD12CFE
:1002300076018091C00087FD02C0A895FACFE091B9
:10024000C600ED30C9F0AAE0B0E0A70196010E9417
:10025000B101CE2EEE0FDD08EE08FF08C60ED71E48
:10026000E81EF91E80E3C81AD108E108F108C701A9
:10027000B6010E944A00DDCFCC0CDD1CEE1CFF1C39
:10028000FE0131965F014F01C701B60110E000E0A9
:100290002AE0422E512C612C712C0F5F1F4FA301BD
:1002A00092010E949201605DF40161934F01B901D6
:1002B000CA0116161706180619067CF30A0D1B1D2F
:1002C000F8011082F80182918F010E9497000A15AF
:1002D0001B05C1F780E20E949700C701B6010E948A
:1002E0004A0088E199E00FB6F894A89580936000E1
:1002F0000FBE90936000FFCFF999FECF92BD81BDF4
:10030000F89A992780B50895262FF999FECF1FBA3C
:1003100092BD81BD20BD0FB6F894FA9AF99A0FBE2E
:1003200001960895052E97FB1EF400940E94A901E2
:1003300057FD07D00E94BC0107FC03D04EF40C947B
:10034000A90150954095309521953F4F4F4F5F4FF4
:10035000089590958095709561957F4F8F4F9F4F31
:1003600008950E94DE01A59F900DB49F900DA49F5B
:10037000800D911D11240895A1E21A2EAA1BBB1B0A
:10038000FD010DC0AA1FBB1FEE1FFF1FA217B30761
:10039000E407F50720F0A21BB30BE40BF50B661F77
:1003A000771F881F991F1A9469F76095709580953B
:1003B00090959B01AC01BD01CF010895A29FB001B2
:1003C000B39FC001A39F700D811D1124911DB29F89
:0E03D000700D811D1124911D0895F894FFCF2A
:00000001FF
