:100000000C9434000C943E000C943E000C943E0082
:100010000C943E000C943E000C943E000C943E0068
:100020000C943E000C943E000C943E000C943E0058
:100030000C943E000C943E000C943E000C943E0048
:100040000C943E000C943E000C943E000C943E0038
:100050000C943E000C943E000C943E000C943E0028
:100060000C943E000C943E0011241FBECFEFD4E050
:10007000DEBFCDBF0E9440000C94D3000C94000062
:1000800084B7A89584B7877F84BF8091600088611A
:10009000809360001092600082E08093BA008091AB
:1000A0007C00806480937C0085B78F7E85BF8AB199
:1000B0008B778AB98BB184688BB926982E9A83E0A6
:1000C00084B985B78F7E85BF84B18B7784B987B1BA
:1000D000887F87B98AB187788AB985B1846885B9FC
:1000E00088B1876088B98BB188678BB960916600E9
:1000F0008DEF91E00E94C500499BFECF85E090E026
:1001000022EB35E026BD35BDA89BFECFA89A15BCD5
:100110000197C1F78EEF91E00E94BD00C82F80EFDC
:100120008C0F803E40F48FEF91E00E94BD00C81319
:1001300002C0C09366001092C1001092C50080E119
:100140008093C40082E08093C00088E18093C10066
:1001500086E08093C2008091C00085FFFCCF8FE3D2
:100160008093C6008091C00087FFFCCF8091C600BD
:100170009091C00095FFFCCFF3CFF999FECF92BDCF
:1001800081BDF89A992780B50895262FF999FECF59
:100190001FBA92BD81BD20BD0FB6F894FA9AF99AA4
:0A01A0000FBE01960895F894FFCFFA
:00000001FF
