:100000000C9434000C9449000C9449000C94490061
:100010000C9449000C9449000C9449000C9449003C
:100020000C9449000C9449000C9449000C9449002C
:100030000C9449000C9449000C9449000C9449001C
:100040000C9449000C9449000C9449000C9449000C
:100050000C9449000C9449000C9449000C944900FC
:100060000C9449000C94490011241FBECFEFD4E03A
:10007000DEBFCDBF11E0A0E0B1E0E8E1F3E002C0F7
:1000800005900D92A430B107D9F70E9462000C943C
:100090008A010C9400009091C00095FFFCCF8093E2
:1000A000C6000895CF93DF93C0E0D1E08991882303
:1000B00031F00E944B0081E0C83CD807B9F7DF91CE
:1000C000CF910895CF93DF93CDB7DEB72C970FB6BE
:1000D000F894DEBF0FBECDBF84B7A89584B7877FE5
:1000E00084BF8091600088618093600010926000FE
:1000F00082E08093BA0080917C00806480937C00D1
:1001000085B78F7E85BF8AB18B778AB98BB18468BA
:100110008BB926982E9A83E084B985B78F7E85BFE8
:1001200084B18B7784B987B1887F87B98AB18778A2
:100130008AB985B1846885B988B1876088B98BB17F
:1001400088678BB9609166008DEF91E00E943B015A
:10015000499BFECF85E090E022EB35E026BD35BD22
:10016000A89BFECFA89A15BC0197C1F78EEF91E02E
:100170000E943301182F80EF810F803E40F48FEFF3
:1001800091E00E943301181302C010936600109290
:10019000C1001092C50080E18093C40082E080938A
:1001A000C00088E18093C10086E08093C2000E9475
:1001B000520081E2C82ED12CE12CF12CCE01019607
:1001C0005C019AE0492E512C612C712C3C2CC7010A
:1001D000B601450110E000E00F5F1F4FA30192013F
:1001E0000E944901605DF40161934F01B901CA01A8
:1001F00016161706180619067CF30A0D1B1DF801C2
:100200001082F80182918F010E944B00A016B10666
:10021000C1F780E20E944B00832D0E944B00A895FD
:10022000FFEF20E782E0F15020408040E1F700C07E
:100230000000C601809787709927892B81F40E945E
:1002400052009FEFC91AD90AE90AF90AEFE7CE1658
:10025000D104E104F10409F0B9CFA895FECF89E0FB
:100260000E944B00EECFF999FECF92BD81BDF89A66
:10027000992780B50895262FF999FECF1FBA92BD10
:1002800081BD20BD0FB6F894FA9AF99A0FBE019677
:100290000895052E97FB1EF400940E94600157FDFF
:1002A00007D00E94680107FC03D04EF40C94600153
:1002B00050954095309521953F4F4F4F5F4F089592
:1002C00090958095709561957F4F8F4F9F4F0895C2
:1002D000A1E21A2EAA1BBB1BFD010DC0AA1FBB1F4A
:1002E000EE1FFF1FA217B307E407F50720F0A21BBC
:1002F000B30BE40BF50B661F771F881F991F1A9429
:1003000069F760957095809590959B01AC01BD0152
:08031000CF010895F894FFCF1E
:040318000D0A0000CA
:00000001FF
