:100000000C9434000C9449000C9449000C94490061
:100010000C9449000C9449000C9449000C9449003C
:100020000C9449000C9449000C9449000C9449002C
:100030000C9449000C9449000C9449000C9449001C
:100040000C9449000C9449000C9449000C9449000C
:100050000C9449000C9449000C9449000C944900FC
:100060000C9449000C94490011241FBECFEFD4E03A
:10007000DEBFCDBF11E0A0E0B1E0E0E6F2E002C0FB
:1000800005900D92A830B107D9F70E9467000C9433
:100090002E010C9400009091C00095FFFCCF80933E
:1000A000C60008950F931F93CF93DF93EC018C014B
:1000B00008531F4F8991882329F00E944B00C017D5
:1000C000D107C1F7DF91CF911F910F91089584B7A8
:1000D000A89584B7877F84BF8091600088618093F2
:1000E00060001092600082E08093BA0080917C00F2
:1000F000806480937C0085B78F7E85BF8AB18B77C3
:100100008AB98BB184688BB926982E9A83E084B91A
:1001100085B78F7E85BF84B18B7784B987B1887F9F
:1001200087B98AB187788AB985B1846885B988B179
:10013000876088B98BB188678BB9609166008DEF55
:1001400091E00E942001499BFECF85E090E022EBE8
:1001500035E026BD35BDA89BFECFA89A15BC0197FA
:10016000C1F78EEF91E00E941801C82F80EF8C0F2D
:10017000803E40F48FEF91E00E941801C81302C046
:10018000C09366001092C1001092C50080E1809378
:10019000C40082E08093C00088E18093C10086E0C3
:1001A0008093C20090E080E021E43091C00037FDF0
:1001B00013C0019681343FE193071CF0215090E079
:1001C00080E02111F2CF8FE30E944B00EBCF8091B2
:1001D000C00087FFFCCF08C084E091E00E9452007D
:1001E0008091C00087FFFCCF8091C6000E944B0029
:1001F00090E080E02AE03091C00037FDE8CF019622
:1002000081343FE193071CF0215090E080E0211100
:10021000F2CF80E091E00E94520088E199E00FB6B1
:10022000F894A895809360000FBE90936000FFCF74
:10023000F999FECF92BD81BDF89A992780B50895AE
:10024000262FF999FECF1FBA92BD81BD20BD0FB6F2
:10025000F894FA9AF99A0FBE01960895F894FFCF90
:08026000446F6E650D0A0000F9
:00000001FF
