:100000000C9434000C9449000C9449000C94490061
:100010000C9449000C9449000C9449000C9449003C
:100020000C9449000C9449000C9449000C9449002C
:100030000C9449000C9449000C9449000C9449001C
:100040000C9449000C9449000C9449000C9449000C
:100050000C9449000C9449000C9449000C944900FC
:100060000C9449000C94490011241FBECFEFD4E03A
:10007000DEBFCDBF11E0A0E0B1E0E6E0F2E002C0FB
:1000800005900D92A430B107D9F70E944B000C9453
:1000900001010C94000084B7A89584B7877F84BFC2
:1000A000809160008861809360001092600082E01F
:1000B0008093BA0080917C00806480937C0085B737
:1000C0008F7E85BF8AB18B778AB98BB184688BB9F3
:1000D00026982E9A83E084B985B78F7E85BF84B138
:1000E0008B7784B987B1887F87B98AB187788AB9D5
:1000F00085B1846885B988B1876088B98BB1886714
:100100008BB9609166008DEF91E00E94F300499BEE
:10011000FECF85E090E022EB35E026BD35BDA89B03
:10012000FECFA89A15BCA8950197B9F78EEF91E07C
:100130000E94EB00C82F80EF8C0F803E40F48FEFC1
:1001400091E00E94EB00C81302C0C09366001092B9
:10015000C1001092C50080E18093C40082E08093CA
:10016000C00088E18093C10086E08093C200E0E097
:10017000F1E028EC31E08191882349F09091C000B2
:1001800095FFFCCF8093C6002E173F07A1F781E2B1
:100190009091C00095FFFCCF8093C600EFE3FCE98F
:1001A0003197F1F700C000008F5FA8958F3781F776
:1001B0008091C00087FD02C0A895FACF8091C6004B
:1001C00088E199E00FB6F894A895809360000FBE7F
:1001D00090936000FFCFF999FECF92BD81BDF89A50
:1001E000992780B50895262FF999FECF1FBA92BDA1
:1001F00081BD20BD0FB6F894FA9AF99A0FBE019608
:060200000895F894FFCF01
:040206000D0A0000DD
:00000001FF
