:020000040000FA
:100000000C9434000C9449000C9449000C94490061
:100010000C9449000C9449000C9449000C9449003C
:100020000C9449000C9449000C9449000C9449002C
:100030000C9449000C9449000C9449000C9449001C
:100040000C9449000C9449000C9449000C9449000C
:100050000C9449000C9449000C9449000C944900FC
:100060000C9449000C94490011241FBECFEFD4E03A
:10007000DEBFCDBF11E0A0E0B1E0E8E7F6E002C0EE
:1000800005900D92A437B107D9F70E9483010C9413
:100090003A030C94000086BD85E085BDA89BFECF89
:1000A000A89A15BC08950F931F93FC010C96DF01CD
:1000B0001D92A817B907E1F78A019B010F7011275C
:1000C0002227332700830A3094F4005D008384E004
:1000D00075956795579547958A95D1F7319641154E
:1000E00051056105710541F71F910F910895095C54
:1000F000EDCF84E88093BC008091BC0087FFFCCFEB
:100100008091BB00089584EC8093BC008091BC007A
:1001100087FFFCCF8091BB0008958093BB0084E8EB
:100120008093BC008091BC0087FFFCCF0895809332
:10013000BB0084EC8093BC008091BC0087FFFCCFA7
:100140000895CF92DF92EF92FF920F931F93CF9378
:10015000DF93C82F062F142FD52F84E48093BC0083
:100160008091BC0087FFFCCF8091BB008C2F0E9448
:100170009700802F0E949700E12EFD2E10E000E0F6
:100180000C2E000CDD0B6E0181E0C81AD1080C1793
:100190001D0774F4F70181917F01C016D10629F47F
:1001A0000E948D000F5F1F4FF2CF0E949700FACF81
:1001B00080E88093BC00DF91CF911F910F91FF9059
:1001C000EF90DF90CF900895CF93DF9300D000D0D1
:1001D000CDB7DEB789839A836B837C83AE014F5F93
:1001E0005F4F61E084E00E94A1000F900F900F909C
:1001F0000F90DF91CF9108959091C00095FFFCCFB3
:100200008093C6000895CF92DF92EF92FF920F93F2
:100210001F93CF93DF9300D0CDB7DEB789831A82C7
:10022000AE014F5F5F4F60E581E00E94A10084E472
:100230008093BC008091BC0087FFFCCF8091BB0005
:100240000E948300182F0E948300105300ED080FB6
:100250008AE0189F000D1124F12CE12C002E000CD7
:10026000110B680181E0C81AD108E016F10674F498
:10027000CE14DF0441F40E9479000E94FC008FEF4D
:10028000E81AF80AF2CF0E948300F7CF80E8809343
:10029000BC000F900F90DF91CF911F910F91FF90B5
:1002A000EF90DF90CF9008950F931F93CF93DF933C
:1002B0008C01FC01EF01C01BD10B81918111FACFA0
:1002C000C00FD11FC017D10721F08A910E94FC00F6
:1002D000F9CFDF91CF911F910F9108950F931F9345
:1002E000CF93DF93EC018C0108531F4F8991882332
:1002F00029F00E94FC00C017D107C1F7DF91CF9110
:100300001F910F910895CF93DF93CDB7DEB72C9750
:100310000FB6F894DEBF0FBECDBF84B7A89584B7E3
:10032000877F84BF80916000886180936000109215
:10033000600082E08093BA0080917C0080648093AA
:100340007C0085B78F7E85BF8AB18B778AB98BB1E8
:1003500084688BB926982E9A85B78F7E85BF84B125
:100360008B7784B987B1887F87B98AB187788AB952
:1003700085B1846885B988B1876088B98BB1886791
:100380008BB9609166008DEF91E00E942C03499B30
:10039000FECF8CED0E944B008EEF91E00E94240373
:1003A000182F80EF810F803E40F48FEF91E00E9484
:1003B0002403181302C0109366001092C10010921B
:1003C000C50080E18093C40082E08093C00088E192
:1003D0008093C10086E08093C20082EB0E944B00B4
:1003E0001E999BC081E08983AE014F5F5F4F61E53D
:1003F00081E00E94A10084E48093BC008091BC0055
:1004000087FFFCCF8091BB0080E00E94970086E5CB
:100410000E948D0084E88093BC008091BC008164C0
:100420008093BC0084E48093BC008091BC0087FF73
:10043000FCCF8091BB000E947900813009F0D0C0D0
:1004400080E88093BC0080E091E00E946E01809182
:10045000C00087FFFCCF8091C600823309F4BEC084
:1004600008F05DC0813309F4B5C020E1E22EF12C23
:1004700001E010E0B801C8010E94E40096E0A92E56
:10048000B12C82EB0E944B0081E0A81AB108C9F799
:10049000000F111F81E0E81AF10861F74F99E5CFCD
:1004A0008FEF91E00E942403482F50E070E060E05D
:1004B000CE0101960E945300CE0101960E94540184
:1004C00081E791E00E946E018EEF91E00E9424038B
:1004D000482F50E070E060E0CE0101960E9453008A
:1004E000CE0101960E94540181E791E00E946E01C5
:1004F0008DEF91E00E942403482F50E070E060E00F
:10050000CE0101960E945300CE0101960E94540133
:1005100081E791E00E946E01A8CF198265CF04E4C3
:1005200010E8833309F471C0843309F09ECF0EE9DB
:1005300012E6F12EEE24EA9483E0D82E8CEF91E0BF
:100540000E942403182F8BEF91E00E942403212F97
:1005500030E0322F2227820F932F911D5C01B69439
:10056000A7949C013695279536952795BC01E3E025
:1005700076956795EA95E1F72627372728273927C3
:10058000F5E096958795FA95E1F7822793279927C5
:10059000869597958827A82AB92A6B2D8CEF91E02C
:1005A0000E942C036A2D8BEF91E00E942C03B50171
:1005B000660F771FC5010E94E40000938500F0924A
:1005C0008400E6BAD0928100B09BFECFB09A109220
:1005D0008100B4CF80E30E94030147CF81E3FBCFCA
:1005E00080E88093BC0041CF0E9479001093BC004A
:1005F00081E791E00E946E018091C00087FFFCCFEF
:100600008091C600883709F430CF0093BC008091F8
:10061000BC0087FFFCCF8091BB0080E00E94970068
:1006200088E40E948D001093BC000093BC00809170
:10063000BC0087FFFCCF8091BB000E948300882311
:1006400099F20E94FC00F9CFF999FECF92BD81BDCD
:10065000F89A992780B50895262FF999FECF1FBAE9
:1006600092BD81BD20BD0FB6F894FA9AF99A0FBEDB
:1006700001960895F894FFCF0D0A50726573730DBB
:100680000A3120666F72204F532076657273696F4E
:100690006E0D0A3220666F722073797374656D2057
:1006A000646174610D0A33204D6573736167652061
:1006B00066726F6D20746865204F5320287820740F
:1006C0006F20657363617065290D0A342044656687
:1006D00061756C742070726F6A6563740D0A3020E6
:0C06E000746F206573636170650D0A0083
:103800000C94341C0C94511C0C94511C0C94511CA1
:103810000C94511C0C94511C0C94511C0C94511C74
:103820000C94511C0C94511C0C94511C0C94511C64
:103830000C94511C0C94511C0C94511C0C94511C54
:103840000C94511C0C94511C0C94511C0C94511C44
:103850000C94511C0C94511C0C94511C0C94511C34
:103860000C94511C0C94511C11241FBECFEFD4E0BA
:10387000DEBFCDBF11E0A0E0B1E0E4EAFFE302C0AB
:1038800005900D92A230B107D9F712E0A2E0B1E0A5
:1038900001C01D92AD30B107E1F70E94361D0C94B6
:1038A000D01F0C94001C982F9595959595959595FE
:1038B000905D8F708A307CF0282F295A8091C0004B
:1038C00085FFFCCF9093C6008091C00085FFFCCFA0
:1038D0002093C6000895282F205DF0CF982F809167
:1038E000C00085FFFCCF9093C6000895EF92FF9231
:1038F0000F931F93EE24FF2487018091C00087FD62
:1039000017C00894E11CF11C011D111D81E4E8168B
:1039100082E4F8068FE0080780E0180770F3E09172
:103920000401F091050109958091C00087FFE9CF5E
:103930008091C6001F910F91FF90EF9008950E9413
:10394000761C982F8091C00085FFFCCF9093C60015
:1039500091362CF490330CF09053892F089597559D
:10396000892F08951F930E949F1C182F0E949F1C4F
:103970001295107F810F1F910895882351F0982F81
:1039800091508091C00087FFFCCF8091C6009923A1
:10399000B9F708951F93182F0E94761C803249F0C2
:1039A000809103018F5F809303018530C1F01F91E7
:1039B00008958091C00085FFFCCF84E18093C6000C
:1039C0008091C00085FFFCCF1093C6008091C0009D
:1039D00085FFFCCF80E18093C6001F910895E091A0
:1039E0000401F091050109951F9108950E94761C2C
:1039F000803241F0809103018F5F80930301853015
:103A000081F008958091C00085FFFCCF84E1809310
:103A1000C6008091C00085FFFCCF80E18093C60086
:103A20000895E0910401F09105010995089510921F
:103A30000A028823D1F090E040E951E02D9A28EE67
:103A400033E0FA013197F1F721503040D1F72D984A
:103A500028EE33E0FA013197F1F721503040D1F7E9
:103A60009F5F981758F380930A0208953F924F92F0
:103A70005F926F927F928F929F92AF92BF92CF92FE
:103A8000DF92EF92FF920F931F93CF93DF9300008B
:103A900083E38093C4001092C50088E18093C10045
:103AA00086E08093C2005098589A259A81E00E943F
:103AB000171D44E1F42E3EE1E32E24E9D22E96E0D8
:103AC000C92E80E1B82EAA24A39401E4902E16E515
:103AD000812EB2E57B2EA0E26A2EF9E45F2EE3E5AB
:103AE0004E2E70E5372E0E94761C8033B1F1813363
:103AF00009F441C0803409F479C0813409F48CC0E0
:103B0000823471F1853409F47BC0803531F182351E
:103B100021F1813511F1853509F48DC0863509F41F
:103B20009DC0843609F4AEC0843709F41BC18537C3
:103B300009F485C1863709F47AC0809103018F5F4B
:103B400080930301853079F6E0910401F09105013D
:103B500009950E94761C803351F60E94F61CC3CF53
:103B600093E18091C00087FFFCCF8091C60099232C
:103B7000A1F39150F6CF0E94761C8032F1F680912D
:103B8000C00085FFFCCFF092C6008091C00085FF89
:103B9000FCCF9092C6008091C00085FFFCCF809240
:103BA000C6008091C00085FFFCCF7092C600809156
:103BB000C00085FFFCCF6092C6008091C00085FFE9
:103BC000FCCF5092C6008091C00085FFFCCF409290
:103BD000C6008091C00085FFFCCF3092C600809166
:103BE000C00085FFFCCFB092C6007DCF0E94761C3E
:103BF000863808F4B2CF0E94761C0E94F61C73CF60
:103C000094E08091C00087FFFCCF8091C60099238B
:103C100009F4A3CF9150F5CF0E94761C8038D1F0E3
:103C2000813861F1823809F499C0883979F080E0EF
:103C30000E94CA1C58CF0E94761C809306010E94E5
:103C4000761C809307010E94F61C4DCF83E00E94F2
:103C5000CA1C49CF82E00E94CA1C45CF0E94761C34
:103C6000803309F486C192E08091C00087FFFCCFC9
:103C70008091C6009923D9F29150F6CF81E00E943D
:103C8000CA1C31CF0E94761C809309020E94761CC8
:103C90008093080280910C028E7F80930C020E9418
:103CA000761C853429F480910C02816080930C028B
:103CB0008091080290910902892B89F000E010E0C0
:103CC0000E94761CF801E85FFE4F80830F5F1F4F54
:103CD00080910802909109020817190788F30E9441
:103CE000761C803209F029CF80910C0280FFD1C070
:103CF0004091060150910701440F551F5093070151
:103D000040930601A0910802B09109021097C9F0F2
:103D1000E8E0F1E09A01BD016E0F7F1FF999FECF37
:103D200032BD21BD819180BDFA9AF99A2F5F3F4F34
:103D3000E617F70799F74A0F5B1F50930701409367
:103D400006018091C00085FFFCCFF092C6008091F3
:103D5000C00085FFFCCFB092C600C5CE80E10E94B6
:103D6000CA1CC1CE0E94761C809309020E94761C58
:103D7000809308028091060190910701880F991F96
:103D800090930701809306010E94761C853409F404
:103D90007AC080910C028E7F80930C020E94761C68
:103DA000803209F0A0CE8091C00085FFFCCFF09258
:103DB000C600A0910802B09109021097B9F1809154
:103DC0000C02182F1170082F0270E0910601F0917B
:103DD00007019F012F5F3F4FB90140E050E01123E1
:103DE000B1F4002339F494918091C00085FFFCCF99
:103DF0009093C6004F5F5F4FCB010196F9014A17C0
:103E00005B0780F4BC012F5F3F4F112351F3F999F9
:103E1000FECFF2BDE1BDF89A90B58091C00085FF5C
:103E2000FCCFE6CF70930701609306018091C0003C
:103E300085FDD9CE8091C00085FFF8CFD4CE0E94F9
:103E4000761C803209F079CE8091C00085FFFCCFCE
:103E5000F092C6008091C00085FFFCCFE092C600C2
:103E60008091C00085FFFCCFD092C6008091C00039
:103E700085FFFCCFC092C6008091C00085FFFCCFBB
:103E8000B092C60030CE80910C02816080930C020B
:103E900085CF809107018823880F880B8A21809322
:103EA0000B028091060190910701880F991F909352
:103EB0000701809306018091080280FF09C080916C
:103EC00008029091090201969093090280930802DA
:103ED000F894F999FECF1127E0910601F0910701BE
:103EE000C8E0D1E08091080290910902103091F46D
:103EF0000091570001700130D9F303E0009357009F
:103F0000E8950091570001700130D9F301E1009369
:103F10005700E89509901990009157000170013001
:103F2000D9F301E000935700E8951395103498F009
:103F300011270091570001700130D9F305E000937B
:103F40005700E8950091570001700130D9F301E165
:103F500000935700E8953296029709F0C7CF1030CA
:103F600011F00296E5CF11248091C00085FFE9CEC3
:103F7000ECCE0E94761C0E94761C182F0E94761CA4
:103F8000112351F0113021F086E00E94CA1CABCD04
:103F900084E90E94CA1CA7CD8EE10E94CA1CA3CD51
:063FA000F894FFCF800041
:00000001FF
