:100000000C9434000C943E000C943E000C943E0082
:100010000C943E000C943E000C943E000C943E0068
:100020000C943E000C943E000C943E000C943E0058
:100030000C943E000C943E000C943E000C943E0048
:100040000C943E000C943E000C943E000C943E0038
:100050000C943E000C943E000C943E000C943E0028
:100060000C943E000C943E0011241FBECFEFD4E050
:10007000DEBFCDBF0E944A000C942A010C94000000
:100080008093BB0084EC8093BC008091BC0087FF10
:10009000FCCF0895CF93DF9300D000D0CDB7DEB76B
:1000A00084B7A89584B7877F84BF809160008861FA
:1000B000809360001092600082E08093BA0080918B
:1000C0007C00806480937C0085B78F7E85BF8AB179
:1000D0008B778AB98BB184688BB926982E9A85B7AD
:1000E0008F7E85BF84B18B7784B987B1887F87B9CC
:1000F0008AB187788AB985B1846885B988B1876003
:1001000088B98BB188678BB9609166008DEF91E0FB
:100110000E941C01499BFECF85E090E022EB35E078
:1001200026BD35BDA89BFECFA89A15BC0197C1F787
:100130008EEF91E00E941401182F80EF810F803E16
:1001400040F48FEF91E00E941401181302C0109345
:1001500066001092C1001092C50080E18093C40037
:1001600082E08093C00088E18093C10086E08093A4
:10017000C20054E8352E60E8262E20E2A22EB12CD3
:10018000C12CD12CE12C30E8F32E412C512C320122
:10019000439449825A82CB82DC8224E42093BC00BF
:1001A0008091BC0087FFFCCF8091BB0084E00E945F
:1001B000400081E00E944000CE0101964C0110E019
:1001C00000E00330110559F58C818093BB0030921B
:1001D000BC008091BC0087FFFCCF0F5F1F4FFFEF7B
:1001E0008F1A9F0A0430110561F72092BC002FEF8F
:1001F0008DEE92E0215080409040E1F700C0000079
:10020000440C551C661C771CF694E794D794C7944D
:10021000A895E1E0AE1AB10809F0BBCFAECFF4016A
:1002200080810E944000D9CFF999FECF92BD81BD57
:10023000F89A992780B50895262FF999FECF1FBA0D
:1002400092BD81BD20BD0FB6F894FA9AF99A0FBEFF
:0802500001960895F894FFCF18
:00000001FF
