:100000000C9434000C943E000C943E000C943E0082
:100010000C943E000C943E000C943E000C943E0068
:100020000C943E000C943E000C943E000C943E0058
:100030000C943E000C943E000C943E000C943E0048
:100040000C943E000C943E000C943E000C943E0038
:100050000C943E000C943E000C943E000C943E0028
:100060000C943E000C943E0011241FBECFEFD4E050
:10007000DEBFCDBF0E944A000C9439010C940000F1
:100080008093BB0084EC8093BC008091BC0087FF10
:10009000FCCF0895CF93DF9300D000D0CDB7DEB76B
:1000A00084B7A89584B7877F84BF809160008861FA
:1000B000809360001092600082E08093BA0080918B
:1000C0007C00806480937C0085B78F7E85BF8AB179
:1000D0008B778AB98BB184688BB926982E9A85B7AD
:1000E0008F7E85BF84B18B7784B987B1887F87B9CC
:1000F0008AB187788AB985B1846885B988B1876003
:1001000088B98BB188678BB9609166008DEF91E0FB
:100110000E942B01499BFECF85E090E022EB35E069
:1001200026BD35BDA89BFECFA89A15BC0197C1F787
:100130008EEF91E00E942301182F80EF810F803E07
:1001400040F48FEF91E00E942301181302C0109336
:1001500066001092C1001092C50080E18093C40037
:1001600082E08093C00088E18093C10086E08093A4
:10017000C200C12CDD24D39401E010E034E4932EBE
:1001800044E8842E50E8752E09831A83C8018095AF
:1001900090958B839C839092BC008091BC0087FFDC
:1001A000FCCF8091BB0084E00E94400081E00E946F
:1001B0004000CE0101965C01F12CE12C93E0E916A0
:1001C000F10409F03BC08C818093BB008092BC009D
:1001D0008091BC0087FFFCCFFFEFEF1AFF0A2FEFE3
:1001E000A21AB20A84E0E816F10441F77092BC004A
:1001F0009FEFE3EFF1E09150E040F040E1F700C005
:100200000000A8952FEF83EF91E0215080409040AF
:10021000E1F700C00000A895C801880F991FE5E02C
:10022000ED1524F0802B912BD394A895C1108160FB
:10023000C92ECC1CCC24CC1C8C01A6CFF50180810E
:100240000E944000C9CFF999FECF92BD81BDF89AB6
:10025000992780B50895262FF999FECF1FBA92BD30
:1002600081BD20BD0FB6F894FA9AF99A0FBE019697
:060270000895F894FFCF91
:00000001FF
