:100000000C9434000C943E000C943E000C943E0082
:100010000C943E000C943E000C943E000C943E0068
:100020000C943E000C943E000C943E000C943E0058
:100030000C943E000C943E000C943E000C943E0048
:100040000C943E000C943E000C943E000C943E0038
:100050000C943E000C943E000C943E000C943E0028
:100060000C943E000C943E0011241FBECFEFD4E050
:10007000DEBFCDBF0E94FA000C94C2010C940000B8
:1000800082EB86BD85E085BDA89BFECFA89A15BCF6
:1000900008958093BB0084EC8093BC008091BC00E9
:1000A00087FFFCCF0895BF92CF92DF92EF92FF922D
:1000B0000F931F93CF93DF93C82F062F142FD52FA5
:1000C00084E48093BC008091BC0087FFFCCF8091CA
:1000D000BB008C2F0E944900802F0E944900E12E16
:1000E000FD2E10E000E00C2E000CDD0B6E0181E017
:1000F000C81AD10884E8B82E0C171D07A4F4F7011C
:1001000081917F01C016D10659F48093BB00B09253
:10011000BC008091BC0087FFFCCF0F5F1F4FECCF6E
:100120000E944900FACF80E88093BC00DF91CF9114
:100130001F910F91FF90EF90DF90CF90BF900895A7
:10014000EF92FF920F931F93CF93DF938B01FB01ED
:10015000D081D11112C0009781F48CEF91E00E9400
:10016000AC01C82F8BEF91E00E94AC012C2F30E046
:10017000322F2227820F932F911D7C01F694E79452
:100180009C013695279536952795AC0163E05695E9
:1001900047956A95E1F7242735272827392775E001
:1001A000969587957A95E1F78227932799278695E3
:1001B00097958827E82AF92ADF5FF801D083DF3F87
:1001C00079F46F2D8CEF91E00E94B4016E2D8BEFCE
:1001D00091E00E94B401299B0BC02998F80110827C
:1001E000C701DF91CF911F910F91FF90EF9008957C
:1001F000299AF4CFCF93DF9300D000D01F92CDB7D0
:10020000DEB784B7A89584B7877F84BF80916000EC
:100210008861809360001092600082E08093BA0051
:1002200080917C00806480937C0085B78F7E85BF41
:100230008AB18B778AB98BB184688BB926982E9A4C
:1002400083E084B985B78F7E85BF84B18B7784B90D
:1002500087B1887F87B98AB187788AB985B1846880
:1002600085B988B1876088B98BB188678BB960918F
:1002700066008DEF91E00E94B401499BFECF0E9481
:100280004000A8950E944000A8950E944000A895B3
:100290000E944000A8950E944000A8958EEF91E032
:1002A0000E94AC01182F80EF810F803E40F48FEF49
:1002B00091E00E94AC01181302C0109366001092E6
:1002C000C1001092C50080E18093C40082E0809359
:1002D000C00088E18093C10086E08093C2001E992F
:1002E00039C081E08983AE014F5F5F4F61E581E0F6
:1002F0000E9453001D82BE016B5F7F4F90E080E043
:100300000E94A0008C01BE016B5F7F4FC8010E945C
:10031000A0008C01817099270196980102C0220FDC
:10032000331F8A95E2F7C90109831A832B839C83C3
:10033000AE014F5F5F4F61E084E00E9453008AE0AE
:10034000E82EF12C0E944000A89531E0E31AF10854
:10035000C9F7D9CF1982C7CFF999FECF92BD81BD18
:10036000F89A992780B50895262FF999FECF1FBADC
:1003700092BD81BD20BD0FB6F894FA9AF99A0FBECE
:0803800001960895F894FFCFE7
:00000001FF
