:100000000C9434000C943E000C943E000C943E0082
:100010000C943E000C943E000C943E000C943E0068
:100020000C943E000C943E000C943E000C943E0058
:100030000C943E000C943E000C943E000C943E0048
:100040000C943E000C943E000C943E000C943E0038
:100050000C943E000C943E000C943E000C943E0028
:100060000C943E000C943E0011241FBECFEFD4E050
:10007000DEBFCDBF0E944A000C942B010C940000FF
:100080008093BB0084EC8093BC008091BC0087FF10
:10009000FCCF0895CF93DF9300D000D0CDB7DEB76B
:1000A00084B7A89584B7877F84BF809160008861FA
:1000B000809360001092600082E08093BA0080918B
:1000C0007C00806480937C0085B78F7E85BF8AB179
:1000D0008B778AB98BB184688BB926982E9A85B7AD
:1000E0008F7E85BF84B18B7784B987B1887F87B9CC
:1000F0008AB187788AB985B1846885B988B1876003
:1001000088B98BB188678BB9609166008DEF91E0FB
:100110000E941D01499BFECF85E090E022EB35E077
:1001200026BD35BDA89BFECFA89A15BC0197C1F787
:100130008EEF91E00E941501182F80EF810F803E15
:1001400040F48FEF91E00E941501181302C0109344
:1001500066001092C1001092C50080E18093C40037
:1001600082E08093C00088E18093C10086E08093A4
:10017000C20090E1C92ED12C01E010E024E4822ECF
:1001800034E8732E40E8942E09831A830B831C8372
:100190008092BC008091BC0087FFFCCF8091BB00A7
:1001A00084E00E94400081E00E944000CE01019660
:1001B0005C01F12CE12C93E0E916F10489F58C81C6
:1001C0008093BB007092BC008091BC0087FFFCCF85
:1001D000FFEFEF1AFF0A2FEFA21AB20A84E0E81627
:1001E000F10449F79092BC009FEFEDEEF2E09150E0
:1001F000E040F040E1F700C00000000F111FA8959B
:1002000021E0C21AD10809F0BFCF88E199E00FB60A
:10021000F894A895809360000FBE90936000FFCF84
:10022000F50180810E944000D3CFF999FECF92BDA5
:1002300081BDF89A992780B50895262FF999FECFA8
:100240001FBA92BD81BD20BD0FB6F894FA9AF99AF3
:0A0250000FBE01960895F894FFCF49
:00000001FF
