:100000000C9434000C943E000C943E000C943E0082
:100010000C943E000C943E000C943E000C943E0068
:100020000C943E000C943E000C943E000C943E0058
:100030000C943E000C943E000C943E000C943E0048
:100040000C943E000C943E000C943E000C943E0038
:100050000C943E000C943E000C943E000C943E0028
:100060000C943E000C943E0011241FBECFEFD4E050
:10007000DEBFCDBF0E94AD000C9492010C94000035
:1000800082EB86BD85E085BDA89BFECFA89A15BCF6
:1000900008958093BB0084EC8093BC008091BC00E9
:1000A00087FFFCCF0895EF92FF920F931F93CF939A
:1000B000DF938B01FB01D081D11112C0009781F435
:1000C0008CEF91E00E947C01C82F8BEF91E00E94A1
:1000D0007C012C2F30E0322F2227820F932F911D8D
:1000E0007C01F694E7949C013695279536952795E3
:1000F000AC0163E0569547956A95E1F724273527CB
:100100002827392775E0969587957A95E1F7822714
:1001100093279927869597958827E82AF92ADF5FFC
:10012000F801D083DF3F79F46F2D8CEF91E00E94CE
:1001300084016E2D8BEF91E00E948401299B0BC0FE
:100140002998F8011082C701DF91CF911F910F917B
:10015000FF90EF900895299AF4CFCF93DF9300D0CA
:1001600000D01F92CDB7DEB784B7A89584B7877F3C
:1001700084BF80916000886180936000109260006D
:1001800082E08093BA0080917C00806480937C0040
:1001900085B78F7E85BF8AB18B778AB98BB184682A
:1001A0008BB926982E9A83E084B985B78F7E85BF58
:1001B00084B18B7784B987B1887F87B98AB1877812
:1001C0008AB985B1846885B988B1876088B98BB1EF
:1001D00088678BB9609166008DEF91E00E94840181
:1001E000499BFECF0E9440000E9440000E944000B8
:1001F0000E9440000E9440008EEF91E00E947C012E
:10020000182F80EF810F803E40F48FEF91E00E9425
:100210007C01181302C0109366001092C100109266
:10022000C50080E18093C40082E08093C00088E133
:100230008093C10086E08093C2001D82BE016B5F87
:100240007F4F90E080E00E9453008C0194E4B92E2F
:1002500024E8A22E30E8932EBE016B5F7F4FC801C9
:100260000E9453008C01817099270196980102C069
:10027000220F331F8A95E2F7C90109831A832B8362
:100280009C83B092BC008091BC0087FFFCCF809122
:10029000BB0084E00E94490081E00E944900CE0139
:1002A00001966C01F12CE12C93E0E916F104F9F4CC
:1002B0008C818093BB00A092BC008091BC0087FF22
:1002C000FCCFFFEFEF1AFF0A2FEFC21AD20A34E079
:1002D000E316F10449F79092BC008AE0E82EF12C75
:1002E0000E94400081E0E81AF108D1F7B5CFF6018D
:1002F00080810E944900E5CFF999FECF92BD81BD72
:10030000F89A992780B50895262FF999FECF1FBA3C
:1003100092BD81BD20BD0FB6F894FA9AF99A0FBE2E
:0803200001960895F894FFCF47
:00000001FF
