:020000040000FA
:100000000C9434000C9449000C9449000C94490061
:100010000C9449000C9449000C9449000C9449003C
:100020000C9449000C9449000C9449000C9449002C
:100030000C9449000C9449000C9449000C9449001C
:100040000C9449000C9449000C9449000C9449000C
:100050000C9449000C9449000C9449000C944900FC
:100060000C9449000C94490011241FBECFEFD4E03A
:10007000DEBFCDBF11E0A0E0B1E0E0E0F4E002C0FF
:1000800005900D92AC32B107D9F70E94F2000C94A2
:10009000FE010C9400008093BB0084EC8093BC00B4
:1000A0008091BC0087FFFCCF0895BF92CF92DF9272
:1000B000EF92FF920F931F93CF93DF93C82F062FDA
:1000C000142FD52F84E48093BC008091BC0087FF5F
:1000D000FCCF8091BB008C2F0E944B00802F0E9490
:1000E0004B00E12EFD2E10E000E00C2E000CDD0B8D
:1000F0006E0181E0C81AD10884E8B82E0C171D07DC
:10010000A4F4F70181917F01C016D10659F48093C0
:10011000BB00B092BC008091BC0087FFFCCF0F5F9A
:100120001F4FECCF0E944B00FACF80E88093BC00B9
:10013000DF91CF911F910F91FF90EF90DF90CF90C3
:10014000BF9008959091C00095FFFCCF8093C600AA
:1001500008950F931F93CF93DF93EC018C01085305
:100160001F4F8991882329F00E94A200C017D10750
:10017000C1F7DF91CF911F910F9108958091C00039
:1001800087FD02C0A895FACF8091C6000895CF934D
:10019000DF938CEF91E00E94E801C82FD0E09E0130
:1001A0003595279535952795CE0143E0959587950B
:1001B0004A95E1F728272C27CE0154E0959587959D
:1001C0005A95E1F72827279522272795D595C79592
:1001D000C22B6C2F8CEF91E00E94F0018C2FDF91ED
:1001E000CF910895CF93DF93CDB7DEB728970FB6A1
:1001F000F894DEBF0FBECDBF84B7A89584B7877FC4
:1002000084BF8091600088618093600010926000DC
:1002100082E08093BA0080917C00806480937C00AF
:1002200085B78F7E85BF8AB18B778AB98BB1846899
:100230008BB926982E9A83E084B985B78F7E85BFC7
:1002400084B18B7784B987B1887F87B98AB1877881
:100250008AB985B1846885B988B1876088B98BB15E
:1002600088678BB9609166008DEF91E00E94F00184
:10027000499BFECF85E090E022EB35E026BD35BD01
:10028000A89BFECFA89A15BCA8950197B9F78EEF49
:1002900091E00E94E801182F80EF810F803E40F42A
:1002A0008FEF91E00E94E801181302C010936600DE
:1002B0001092C1001092C50080E18093C40082E0DA
:1002C0008093C00088E18093C10086E08093C200E3
:1002D0001E9957C081E08983AE014F5F5F4F61E592
:1002E00081E00E94550019821A821B821C821D82A5
:1002F0001E821F82188661E08CEF91E00E94F0015F
:1003000080E1E82EF12C0E94C70010E000E0C82E2A
:10031000D12CC601002E02C0959587950A94E2F76C
:1003200080FF31C081E30E94A2000F5F1F4F0830A1
:10033000110579F780E091E00E94A90081E0E81AB8
:10034000F10809F783E091E00E94A9000E94BE0035
:10035000182F00E08E3721F40E94BE00182F01E014
:100360001C3719F11E3509F11632F9F088E199E0D0
:100370000FB6F894A895809360000FBE909360002C
:10038000FFCF1982A9CF80E3CECF892B013009F4AA
:1003900080958B83AE014F5F5F4F67E488E00E94DA
:1003A00055000E94BE00883769F20E94C700898309
:1003B0000E94C7008A8399811E3531F01C3729F3CA
:1003C000163221F48923E2CF8927E0CF80E0DECF07
:1003D000F999FECF92BD81BDF89A992780B508950D
:1003E000262FF999FECF1FBA92BD81BD20BD0FB651
:1003F000F894FA9AF99A0FBE01960895F894FFCFEF
:100400000D0A000D0A53656C656374204F503A2045
:10041000207C2020205E202020262020207E7C2082
:0C042000207E5E20206F7220207E2600CF
:103800000C94341C0C94511C0C94511C0C94511CA1
:103810000C94511C0C94511C0C94511C0C94511C74
:103820000C94511C0C94511C0C94511C0C94511C64
:103830000C94511C0C94511C0C94511C0C94511C54
:103840000C94511C0C94511C0C94511C0C94511C44
:103850000C94511C0C94511C0C94511C0C94511C34
:103860000C94511C0C94511C11241FBECFEFD4E0BA
:10387000DEBFCDBF11E0A0E0B1E0E4EAFFE302C0AB
:1038800005900D92A230B107D9F712E0A2E0B1E0A5
:1038900001C01D92AD30B107E1F70E94361D0C94B6
:1038A000D01F0C94001C982F9595959595959595FE
:1038B000905D8F708A307CF0282F295A8091C0004B
:1038C00085FFFCCF9093C6008091C00085FFFCCFA0
:1038D0002093C6000895282F205DF0CF982F809167
:1038E000C00085FFFCCF9093C6000895EF92FF9231
:1038F0000F931F93EE24FF2487018091C00087FD62
:1039000017C00894E11CF11C011D111D81E4E8168B
:1039100082E4F8068FE0080780E0180770F3E09172
:103920000401F091050109958091C00087FFE9CF5E
:103930008091C6001F910F91FF90EF9008950E9413
:10394000761C982F8091C00085FFFCCF9093C60015
:1039500091362CF490330CF09053892F089597559D
:10396000892F08951F930E949F1C182F0E949F1C4F
:103970001295107F810F1F910895882351F0982F81
:1039800091508091C00087FFFCCF8091C6009923A1
:10399000B9F708951F93182F0E94761C803249F0C2
:1039A000809103018F5F809303018530C1F01F91E7
:1039B00008958091C00085FFFCCF84E18093C6000C
:1039C0008091C00085FFFCCF1093C6008091C0009D
:1039D00085FFFCCF80E18093C6001F910895E091A0
:1039E0000401F091050109951F9108950E94761C2C
:1039F000803241F0809103018F5F80930301853015
:103A000081F008958091C00085FFFCCF84E1809310
:103A1000C6008091C00085FFFCCF80E18093C60086
:103A20000895E0910401F09105010995089510921F
:103A30000A028823D1F090E040E951E02D9A28EE67
:103A400033E0FA013197F1F721503040D1F72D984A
:103A500028EE33E0FA013197F1F721503040D1F7E9
:103A60009F5F981758F380930A0208953F924F92F0
:103A70005F926F927F928F929F92AF92BF92CF92FE
:103A8000DF92EF92FF920F931F93CF93DF9300008B
:103A900083E38093C4001092C50088E18093C10045
:103AA00086E08093C2005098589A259A81E00E943F
:103AB000171D44E1F42E3EE1E32E24E9D22E96E0D8
:103AC000C92E80E1B82EAA24A39401E4902E16E515
:103AD000812EB2E57B2EA0E26A2EF9E45F2EE3E5AB
:103AE0004E2E70E5372E0E94761C8033B1F1813363
:103AF00009F441C0803409F479C0813409F48CC0E0
:103B0000823471F1853409F47BC0803531F182351E
:103B100021F1813511F1853509F48DC0863509F41F
:103B20009DC0843609F4AEC0843709F41BC18537C3
:103B300009F485C1863709F47AC0809103018F5F4B
:103B400080930301853079F6E0910401F09105013D
:103B500009950E94761C803351F60E94F61CC3CF53
:103B600093E18091C00087FFFCCF8091C60099232C
:103B7000A1F39150F6CF0E94761C8032F1F680912D
:103B8000C00085FFFCCFF092C6008091C00085FF89
:103B9000FCCF9092C6008091C00085FFFCCF809240
:103BA000C6008091C00085FFFCCF7092C600809156
:103BB000C00085FFFCCF6092C6008091C00085FFE9
:103BC000FCCF5092C6008091C00085FFFCCF409290
:103BD000C6008091C00085FFFCCF3092C600809166
:103BE000C00085FFFCCFB092C6007DCF0E94761C3E
:103BF000863808F4B2CF0E94761C0E94F61C73CF60
:103C000094E08091C00087FFFCCF8091C60099238B
:103C100009F4A3CF9150F5CF0E94761C8038D1F0E3
:103C2000813861F1823809F499C0883979F080E0EF
:103C30000E94CA1C58CF0E94761C809306010E94E5
:103C4000761C809307010E94F61C4DCF83E00E94F2
:103C5000CA1C49CF82E00E94CA1C45CF0E94761C34
:103C6000803309F486C192E08091C00087FFFCCFC9
:103C70008091C6009923D9F29150F6CF81E00E943D
:103C8000CA1C31CF0E94761C809309020E94761CC8
:103C90008093080280910C028E7F80930C020E9418
:103CA000761C853429F480910C02816080930C028B
:103CB0008091080290910902892B89F000E010E0C0
:103CC0000E94761CF801E85FFE4F80830F5F1F4F54
:103CD00080910802909109020817190788F30E9441
:103CE000761C803209F029CF80910C0280FFD1C070
:103CF0004091060150910701440F551F5093070151
:103D000040930601A0910802B09109021097C9F0F2
:103D1000E8E0F1E09A01BD016E0F7F1FF999FECF37
:103D200032BD21BD819180BDFA9AF99A2F5F3F4F34
:103D3000E617F70799F74A0F5B1F50930701409367
:103D400006018091C00085FFFCCFF092C6008091F3
:103D5000C00085FFFCCFB092C600C5CE80E10E94B6
:103D6000CA1CC1CE0E94761C809309020E94761C58
:103D7000809308028091060190910701880F991F96
:103D800090930701809306010E94761C853409F404
:103D90007AC080910C028E7F80930C020E94761C68
:103DA000803209F0A0CE8091C00085FFFCCFF09258
:103DB000C600A0910802B09109021097B9F1809154
:103DC0000C02182F1170082F0270E0910601F0917B
:103DD00007019F012F5F3F4FB90140E050E01123E1
:103DE000B1F4002339F494918091C00085FFFCCF99
:103DF0009093C6004F5F5F4FCB010196F9014A17C0
:103E00005B0780F4BC012F5F3F4F112351F3F999F9
:103E1000FECFF2BDE1BDF89A90B58091C00085FF5C
:103E2000FCCFE6CF70930701609306018091C0003C
:103E300085FDD9CE8091C00085FFF8CFD4CE0E94F9
:103E4000761C803209F079CE8091C00085FFFCCFCE
:103E5000F092C6008091C00085FFFCCFE092C600C2
:103E60008091C00085FFFCCFD092C6008091C00039
:103E700085FFFCCFC092C6008091C00085FFFCCFBB
:103E8000B092C60030CE80910C02816080930C020B
:103E900085CF809107018823880F880B8A21809322
:103EA0000B028091060190910701880F991F909352
:103EB0000701809306018091080280FF09C080916C
:103EC00008029091090201969093090280930802DA
:103ED000F894F999FECF1127E0910601F0910701BE
:103EE000C8E0D1E08091080290910902103091F46D
:103EF0000091570001700130D9F303E0009357009F
:103F0000E8950091570001700130D9F301E1009369
:103F10005700E89509901990009157000170013001
:103F2000D9F301E000935700E8951395103498F009
:103F300011270091570001700130D9F305E000937B
:103F40005700E8950091570001700130D9F301E165
:103F500000935700E8953296029709F0C7CF1030CA
:103F600011F00296E5CF11248091C00085FFE9CEC3
:103F7000ECCE0E94761C0E94761C182F0E94761CA4
:103F8000112351F0113021F086E00E94CA1CABCD04
:103F900084E90E94CA1CA7CD8EE10E94CA1CA3CD51
:063FA000F894FFCF800041
:00000001FF
