:100000000C9434000C9451000C9451000C94510049
:100010000C9451000C9451000C9451000C9451001C
:100020000C9451000C9457040C9451000C94510002
:100030000C9451000C94CC040C9451000C9451007D
:100040000C9451000C9451000C9451000C945100EC
:100050000C9451000C9451000C9451000C945100DC
:100060000C9451000C94510011241FBECFEFD8E026
:10007000DEBFCDBF12E0A0E0B1E0EAEAFEE002C0E0
:1000800005900D92A433B107D9F712E0A4E3B2E0D2
:1000900001C01D92A739B107E1F70E942F050C940A
:1000A00053070C94000020E030E003C000002F5FF5
:1000B0003F4F82179307D4F70895AC0120E030E05A
:1000C00062EB95E009C066BD95BD85B38823E9F371
:1000D000A89A15BC2F5F3F4F24173507A4F3089546
:1000E00066BD85BD85B38823E9F3A89A15BC08953C
:1000F000EEE6F0E090819160908366BD85BD089545
:10010000EFE6F0E080818160808382E0809381006F
:10011000089570938500609384009FEF96BB809351
:10012000810086B38823E9F3B09A10928100089584
:100130000F931F93182F062F85E062EF7CEF0E942C
:100140008900E1ECF0E010821093C5000093C40038
:1001500082E08093C00088E1808386E08093C200C3
:100160001F910F910895EFE6F0E0908191609083E8
:10017000709385006093840080938100089560935C
:10018000B2008093B10087B38823E9F3B89A109244
:10019000B10008958091C00087FFFCCF0895809141
:1001A000C00087FFFCCF8091C60008958091C600F3
:1001B0000895982F20E030E00DC02F5F3F4F8FE172
:1001C000213438071CF0915020E030E0992311F4DD
:1001D00080E008958091C00087FFEFCF81E008950F
:1001E0008091C000881F8827881F08958091C000D3
:1001F00087FFFCCF8091C6008D3011F08A3051F41A
:1002000081E00E94D900882311F48DE00895809147
:10021000C6008DE0089585E00E94D900813019F470
:100220008091C600F8CF0895982F8091C00085FF77
:10023000FCCF9093C6000895AC0120E030E0FA01B5
:10024000E20FF31FE081EE2359F02F5F3F4F8091C3
:10025000C00085FFFCCFE093C600283C310579F74C
:10026000089580E091E00E941C0108951F931EE212
:1002700085E00E94D900813049F48091C6008091C8
:10028000C00085FFFCCF1093C600F2CF0E94310161
:100290001F9108952F923F924F925F926F927F929B
:1002A0008F929F92AF92BF92CF92DF92EF92FF9286
:1002B0000F931F93CF93DF93EC015A016B014030F2
:1002C00080E0580780E0680780E8780751F52A3019
:1002D00021F0203109F06CC014C028E3288394E396
:1002E000998386E38A8383E38B832C839D8387E3CF
:1002F0008E839F8381E3888782E389878DE28A8763
:100300000EC080E3888389838A838B838C838D836B
:100310008E8388E38F838DE2888719861A861B86F1
:1003200047C080E090E0FE01E80FF91F10820196BF
:100330008C309105C1F786017501D7FE07C0EE2408
:10034000FF248701EA18FB080C091D094E016624E9
:100350007724222E332444245524C801B701A20156
:1003600091010E942207F40160836A3010F4605DFD
:1003700002C0695CF40160830894611C711CC801AF
:10038000B701A20191010E942207C901DA017C0193
:100390008D010894811C911C1E141F041006110667
:1003A000E4F2D7FE05C06C0E7D1E8DE2F301808362
:1003B000DF91CF911F910F91FF90EF90DF90CF9041
:1003C000BF90AF909F908F907F906F905F904F9075
:1003D0003F902F900895AC0120E030E002C02F5FE5
:1003E0003F4FFA01E20FF31F80818823C1F72150AC
:1003F0003040FA01E20FF31F2F5F3F4F0AC0908198
:100400008091C00085FFFCCF9093C6002150304002
:1004100031972115310599F708950F931F93DF93B5
:10042000CF93CDB7DEB72C970FB6F894DEBF0FBED3
:10043000CDBF282F8E010F5F1F4FC8010E944A01B8
:10044000C8010E94EB012C960FB6F894DEBF0FBED8
:10045000CDBFCF91DF911F910F91089590E0805310
:100460008A3008F491E0892F0895803328F08A3388
:1004700028F08154863010F080E0089581E00895DE
:100480001F93182F87FF10C083E091E00E941C018A
:10049000412F552747FD5095509541955F4F662751
:1004A00057FD6095762F0AC087E091E00E941C01FD
:1004B000412F552747FD5095652F752F8AE00E94E3
:1004C0000D021F910895AF92BF92CF92DF92EF92EB
:1004D000FF920F931F93CF93DF937A018B0160E01C
:1004E00070E0FC01E60FF71F10826F5F7F4F6C30EA
:1004F0007105B9F7EC01A22EBB24CC24DD24C80180
:10050000B701A60195010E94000768836A3010F4C4
:10051000605D01C0695C6883C801B701A6019501EF
:100520000E940007C901DA017C018D012196E114C6
:10053000F1040105110519F7DF91CF911F910F917A
:10054000FF90EF90DF90CF90BF90AF9008950F9302
:100550001F93DF93CF93CDB7DEB72C970FB6F894E8
:10056000DEBF0FBECDBF282F8E010F5F1F4FC8010A
:100570000E946302C8010E94EB012C960FB6F8940A
:10058000DEBF0FBECDBFCF91DF911F910F910895B8
:100590001092850010928400109281001092B10098
:1005A0008091B60080FDFCCF1092B0008091B60023
:1005B00081FDFCCF1092B2008091B60084FDFCCF8B
:1005C000089581E08093B1008091B60080FDFCCF5A
:1005D00081E0809381000895CF92DF92EF92FF92A5
:1005E0000F931F93282F109236021092350210920B
:1005F00093021092940210929502109296028091AA
:100600003502909136020F97D4F310923602109271
:100610003502C0909302D0909402E0909502F09041
:100620009602F7FE08C0F094E094D094C094C11CE8
:10063000D11CE11CF11C2223E1F0009191021091E8
:100640009202000F111F095C1D4FC701B6012AE07D
:1006500030E040E050E00E942207F801318320831F
:1006600080919102909192020196909392028093D0
:100670009102C701B6012AE030E040E050E00E945C
:100680002207CA01B9011F910F91FF90EF90DF90EF
:10069000CF900895682F1092360210923502109272
:1006A00093021092940210929502109296028091F9
:1006B0003502909136020297D4F3109236021092CE
:1006C000350220919302309194024091950250910D
:1006D0009602662399F0E0919102F0919202EE0F5A
:1006E000FF1FE95CFD4F318320838091910290913F
:1006F000920201969093920280939102B901CA01ED
:100700000895DF92EF92FF920F931F93D82E80935C
:10071000660080E00E94EC02209166002F5F20932B
:100720006600AC01CB01DA017C018D0180E00E9402
:10073000EC029B01AC01E616F7060807190754F412
:1007400080916600815080936600809166008D15CF
:1007500031F508C0809166008F5F80936600790153
:100760008A01E4CF8091660081508093660080E02A
:100770000E94EC029B01AC01E616F7060807190778
:1007800034F4809166008F5F8093660008C080918A
:10079000660081508093660079018A01E8CFB70135
:1007A000C8011F910F91FF90EF90DF900895FF9285
:1007B0000F931F93182FF62E809170008160809305
:1007C000700080916F00816080936F000E94C8026A
:1007D00081E08093B1008091B60080FDFCCF81E084
:1007E000809381001093660080E00E94EC0280E01C
:1007F0000E94EC0280E00E94EC02162F072FF0927C
:1008000066000E94C802809170008E7F8093700005
:1008100080916F008E7F80936F00212F302FC90150
:100820009C0197FF03C0309521953F4FC9011F914F
:100830000F91FF900895FF920F931F93182FF62E9C
:100840008091700081608093700080916F00816062
:1008500080936F000E94C80281E08093B100809174
:10086000B60080FDFCCF81E080938100109366008C
:1008700080E00E94EC0280E00E94EC0280E00E9496
:10088000EC02162F072FF09266000E94C80280919A
:1008900070008E7F8093700080916F008E7F8093B8
:1008A0006F00812F902F1F910F91FF9008951F923D
:1008B0000F920FB60F921124EF92FF920F931F9396
:1008C0002F933F934F935F938F939F93AF93BF93D8
:1008D0001092810020918400309185001092850053
:1008E0001092840081E08093810080913502909184
:1008F00036020597ACF180913402813019F08230D4
:1009000041F40BC05AE0E52EF12C51E0052F112DDA
:1009100009C0EE24FF24870105C0E12CF12C42E040
:10092000042F112D8091930290919402A091950231
:10093000B09196028452944FA040B04040E050E005
:10094000820F931FA41FB51F8E0D9F1DA01FB11FE7
:100950008093930290939402A0939502B093960291
:100960001092340280913502909136020196909354
:10097000360280933502BF91AF919F918F915F9125
:100980004F913F912F911F910F91FF90EF900F90FA
:100990000FBE0F901F9018951F920F920FB60F92D7
:1009A00011248F93809134028F5F809334028F9152
:1009B0000F900FBE0F901F901895EF92FF920F931C
:1009C0001F938091C00087FFFCCF1091C6001033A9
:1009D000C0F31A3320F0812F8154863090F7103302
:1009E000A1F10E9431018091C00085FFFCCF1093DE
:1009F000C600612F60536A3008F06750E62EFF246E
:100A000000E010E00E94F600982F8D3009F180334D
:100A1000C8F38A3318F081548630A0F78091C00063
:100A200085FFFCCF9093C600892F80538A3008F051
:100A3000875064E0EE0CFF1C001F111F6A95D1F770
:100A4000E80EF11C011D111DDDCFEE24FF248701EE
:100A5000B701C8011F910F91FF90EF900895EF9299
:100A6000FF920F931F93CF93DF93A89584B7877F4F
:100A700084BF809160008861809360001092600064
:100A8000499BFECF80E060E10E94980080E090E00A
:100A9000000001968B309105D9F780917C0080642D
:100AA00080937C0085B78F7E85BF8AB18B778AB9AA
:100AB0008BB184688BB926982E9A81E090E00E94D1
:100AC0005D0085B78F7E85BF84B18B7784B987B190
:100AD000887F87B98AB187788AB985B1846885B9F2
:100AE00088B1876088B98BB188678BB960916600DF
:100AF0008DEF93E00E9445078EEF93E00E943D0743
:100B0000182F803160F0803F50F48FEF93E00E9407
:100B10003D07181721F41093660011E001C010E0A2
:100B20000091660084B7882369F08BE091E00E9411
:100B30001C018FEF0E94D9008823B9F38091C60071
:100B4000833499F714BE80E28093B6001092B2000D
:100B50008FE091E00E941C018FE391E00E941C0154
:100B60000E94310185E491E00E941C010E94310144
:100B7000113009F036C18CE591E00E941C01402F34
:100B800050E060E070E080E10E940D020E943101BF
:100B900087E691E00E941C018DEF93E00E943D07E3
:100BA000482F50E060E070E080E10E940D020E945A
:100BB00031018CED86BD85E085BD85B38823E9F3E1
:100BC000A89A15BC7894109292021092910280918A
:100BD000700081608093700080916F0081608093CD
:100BE0006F000E94C80281E08093B1008091B6003E
:100BF00080FDFCCF81E0809381008091660084516C
:100C00008093660010916600C0E0D0E081E00E9411
:100C1000EC02809166008F5F809366002196C93256
:100C2000D105A1F70E94C802809170008E7F809349
:100C3000700080916F008E7F80936F00009366003C
:100C4000C7E3D2E0E9E0FE2E75E2E72E412F50E047
:100C500060E070E080E10E940D021F5F8091C000A3
:100C600085FFFCCFF092C60048815981662757FD69
:100C70006095762F8AE00E940D028091C00085FF6A
:100C8000FCCFF092C60068817981882777FD809536
:100C9000982F21E732E040E050E00E9422078AE0EE
:100CA000BA01A9010E940D028091C00085FFFCCF0E
:100CB000E092C6000E943101229682E0C938D8072E
:100CC00029F682E791E00E941C010E94DD04162FA4
:100CD000662309F452C08CEA91E00E941C018091C5
:100CE000C00087FFFCCF8091C600893709F039C06A
:100CF0001F3F29F1812F602F0E94D703EC0187E06D
:100D0000C830D807E4F00E943101AE01662757FDD4
:100D10006095762F8AE00E940D028EEC91E00E9491
:100D20001C010E94310129E088E190E00FB6F8949F
:100D3000A895809360000FBE20936000FFCF8EEFD8
:100D400093E0612F0E9445078FEF93E0612F0E948F
:100D500045071F3F19F4009366000FC0109366000B
:100D60000CC029E088E190E00FB6F894A895809334
:100D700060000FBE20936000FFCF8BEE91E00E94D9
:100D80001C018EEF93E00E943D07482F50E060E089
:100D900070E080E10E940D0285E092E00E941C015B
:100DA0008FEF93E00E943D07482F50E060E070E035
:100DB00080E10E940D028AE092E00E941C01809175
:100DC000C00087FFFCCF8091C60029E088E190E059
:100DD0000FB6F894A895809360000FBE2093600032
:100DE000FFCF8BE192E00E941C014091660050E031
:100DF00060E070E080E10E940D020E943101D7CED8
:100E0000A1E21A2EAA1BBB1BFD010DC0AA1FBB1F0E
:100E1000EE1FFF1FA217B307E407F50720F0A21B80
:100E2000B30BE40BF50B661F771F881F991F1A94ED
:100E300069F760957095809590959B01AC01BD0117
:100E4000CF01089597FB092E05260ED057FD04D03B
:100E5000D7DF0AD0001C38F4509540953095219585
:100E60003F4F4F4F5F4F0895F6F7909580957095DF
:100E700061957F4F8F4F9F4F0895F999FECF92BD97
:100E800081BDF89A992780B50895262FF999FECF4C
:100E90001FBA92BD81BD20BD0FB6F894FA9AF99A97
:0A0EA0000FBE01960895F894FFCFED
:100EAA000D0A0020452D0020452B00432020000D6F
:100EBA000A506572666F726D696E6720206D616E89
:100ECA0075616C2063616C6962726174696F6E200E
:100EDA006F6E2041544D454741333238202000532C
:100EEA005720563200506C656173652077616974CA
:100EFA00203130207365636F6E647300554320762A
:100F0A00616C756520200044432076616C7565200C
:100F1A0020000D0A456E746572206E657720757320
:100F2A0065722063616C2076616C75652C2046467B
:100F3A0020746F2064656C657465206974206F7213
:100F4A00203020746F2061626F7274000D0A507233
:100F5A006573732079206966204F4B206F72204198
:100F6A004F4B20746F2061626F7274202000202022
:100F7A004572726F7220746F6F2067726561742C8C
:100F8A002074727920616761696E000D0A56616C7E
:100F9A0075657320736176656420746F20454550CA
:100FAA00524F4D090020202020000D0A414B207489
:100FBA006F207265706561740D0A004E6F2055438B
:100FCA002076616C75650D0A44432076616C7565FF
:040FDA0020200000D3
:00000001FF
