:100000000C9434000C9451000C9451000C94510049
:100010000C9451000C9451000C9451000C9451001C
:100020000C9451000C9451000C9451000C9451000C
:100030000C9451000C9451000C9451000C945100FC
:100040000C9451000C9451000C9458000C945100E5
:100050000C9451000C9451000C9451000C945100DC
:100060000C9451000C94510011241FBECFEFD8E026
:10007000DEBFCDBF11E0A0E0B1E0E4EFFEE102C0E1
:1000800005900D92A439B107D9F712E0A4E9B1E0C7
:1000900001C01D92AF36B107E1F70E94180C0C9415
:1000A000780F0C940000000000000000000008958C
:1000B0001F920F920FB60F9211242F933F934F93DD
:1000C0008F939F93EF93FF938091C6008A3331F40F
:1000D00010925A021092590240E007C08A3318F475
:1000E000482F405302C0482F4753809159029091A6
:1000F0005A028330910551F1843091053CF48130EE
:10010000910521F1029709F067C00AC08530910579
:10011000B1F18530910514F1069709F05DC041C039
:100120008091690290916A02840F911D90936A02F6
:10013000809369028091690290916A02880F991FE9
:10014000099690934B0280934A0235C0842F90E029
:1001500024E0880F991F2A95E1F71EC0809169025B
:1001600090916A02840F911D90936A0280936902B4
:100170008091690290916A02982F88270DC0209182
:10018000690230916A02842F90E0E4E0880F991FA1
:10019000EA95E1F7820F931F90936A0280936902B8
:1001A0001BC08091690290916A02840F911D909307
:1001B0006A028093690280919C01E82FF0E08F5FD2
:1001C00080939C018091690290916A02EE0FFF1F5B
:1001D000EB55FE4F918380838091590290915A0292
:1001E00009970CF488C02091590230915A028091ED
:1001F0004A0290914B02281739070CF07CC080917D
:10020000590290915A0283709070019759F4842F8B
:1002100090E0F4E0880F991FFA95E1F790936A0255
:10022000809369028091590290915A028370907074
:10023000029751F48091690290916A02840F911D96
:1002400090936A02809369028091590290915A02B8
:1002500083709070039759F4842F90E0E4E0880F46
:10026000991FEA95E1F790934D0280934C0280919B
:10027000590290915A0283709070892BE1F5809118
:100280004C0290914D02840F911D90934D028093EA
:100290004C0280914C0290914D02982F88279093A8
:1002A0004D0280934C022091690230916A02809144
:1002B0004C0290914D02820F931F90936A0280939B
:1002C000690280919C01E82FF0E08F5F80939C0190
:1002D0008091690290916A02EE0FFF1FEB55FE4F6D
:1002E0009183808380915202909153020196909362
:1002F0005302809352028091590290915A020196C2
:1003000090935A028093590280919C018F7380933D
:100310009C01FF91EF919F918F914F913F912F9170
:100320000F900FBE0F901F90189591EE02C0915044
:1003300021F08091C00087FFFACF089506C0915048
:1003400021F08091C00087FFFACF909156028091F2
:100350009C01981711F491EEF4CFE0915602F0E071
:10036000EE0FFF1FEB55FE4F20813181922F20931E
:100370005802809156028F5F8093560280915602F8
:100380008F7380935602822F27FD8F5F8595809310
:10039000960180915B0280311CF481E080934502DC
:1003A00090935B0206C0915021F08091C00087FFBE
:1003B000FACF9091560280919C01981711F491EE1A
:1003C000F4CFE0915602F0E0EE0FFF1FEB55FE4F29
:1003D00080819181209156022F5F209356022091B7
:1003E00056022F732093560262E070E00E944F0F76
:1003F0009B0170934F0260934E0260916B0270916B
:100400006C026F5F7F4F70936C0260936B02809100
:100410009F019091A0012817390751F1211531054D
:1004200049F140919D0150919E0142235323E09157
:100430006502F091660220916702309168022E0FEA
:100440003F1F241735072CF481E080934602109259
:100450005C024217530729F41092460281E0809310
:100460005C024E175F0731F41092460210925C0254
:100470001092570263FF02C028980895289A0895A1
:1004800020914E0230914F023093A00120939F01A2
:1004900080919D0190919E01822393239093660207
:1004A00080936502A901481B590B50936002409349
:1004B0005F0240915F0250916002277020934702D3
:1004C0004093630280916702841B80939901089591
:1004D00006C0915021F08091C00087FFFACF909123
:1004E000560280919C01981711F491EEF4CFE0919F
:1004F0005602F0E0EE0FFF1FEB55FE4F8081918119
:100500009093490280934802809156028F5F8093B6
:100510005602809156028F738093560208958F92EF
:100520009F92AF92BF92CF92DF92EF92FF920F9382
:100530001F93CF93DF93EC016B01A0E0B0E0DC01EF
:10054000992788279B0140E050E0280F391F4A1F58
:100550005B1FF09062021F2D109500915102E02E5A
:10056000E094E0E0F0E085B1812385B9CE010E2E64
:1005700002C0880F991F0A94E2F797FF03C085B164
:10058000802B02C085B18E2185B985B18F2985B9AF
:1005900000000000000000003196E031F10519F77D
:1005A000B0915002A0E0E0E0F0E06FE070E0C1E068
:1005B000D0E087E0A82EB12C85B1812385B9C60192
:1005C0000E2E02C0880F991F0A94E2F797FF03C00E
:1005D00085B1802B02C085B18E2185B985B18F2967
:1005E00085B90000000000000000203080E03807DE
:1005F00080E0480780E5580709F45EC0213080E0BC
:10060000380780E0480780E55807E0F4203081E0B3
:10061000380780E0480780E3580709F44DC02030D0
:1006200082E0380780E0480780E3580709F444C0B7
:10063000203080E0380780E0480780E3580709F061
:100640004DC03AC0203080E0380780E0480788E598
:100650005807B1F1213080E0380780E0480788E58D
:10066000580748F4203080E0380788E0480780E5E4
:100670005807A1F521C0203080E0380788E04807FE
:1006800088E55807C9F0203080E0380783E548073F
:100690008CEA580719F5E830F10504F583B18B238E
:1006A000E9F0C5018E1B9F0B4E0102C0880C991CFE
:1006B0008A95E2F7C40111C0E830F1057CF003C06F
:1006C000EA30F1055CF083B18B2341F0CE01062EB8
:1006D00002C0880F991F0A94E2F7A82B3196615047
:1006E0007040E031F10509F067CF85B1182315B9E5
:1006F00087EB86BD85E085BD85B38823E9F3A89A9D
:1007000015BC8A2FDF91CF911F910F91FF90EF9031
:10071000DF90CF90BF90AF909F908F900895CF9231
:10072000DF92FF920F931F93CF93DF93582FEB012C
:10073000142F8C3479F08D3428F4883449F08934BE
:1007400029F40CC08F3461F0873531F080E009C0A6
:1007500088E207C080E205C08CE403C080EC01C0E1
:1007600080EA40916202A42FA095B09151027B2FA4
:10077000709520E030E0E82FF0E085B18A2385B95C
:10078000CF01022E02C0880F991F0A94E2F787FF5B
:1007900003C085B18B2B02C085B1872385B985B194
:1007A000842B85B900000000000000002F5F3F4F40
:1007B0002830310511F720E030E085B18A2385B972
:1007C000CE01022E02C0880F991F0A94E2F797FF0C
:1007D00003C085B18B2B02C085B1872385B985B154
:1007E000842B85B900000000000000002F5F3F4F00
:1007F0002031310511F7F090500260E027E030E041
:10080000E12FF0E007E010E0C1E0D0E085B18A23FD
:1008100085B9593471F4C801821B930B6F0102C072
:10082000CC0CDD1C8A95E2F7C7FE03C085B18B2B8B
:1008300002C085B1872385B985B1842B85B90000B5
:1008400000000000000083B18F2141F0CE01022E94
:1008500002C0880F991F0A94E2F7682B215030409C
:100860008FEF2F3F380791F685B1A823A5B95735EB
:1008700041F48CED86BD85E085BD85B38823E9F321
:1008800009C0593449F48CED86BD85E085BD85B33A
:100890008823E9F3A89A15BC862FDF91CF911F9189
:1008A0000F91FF90DF90CF900895BC0187E540E065
:1008B0000E948F031092640208951F93142F8834AE
:1008C00019F08C3421F406C0E0E0F8E405C0E0E063
:1008D000F0E002C0E0E0F0E4B09162025B2F5095DE
:1008E000A09151024A2F409520E030E085B1852348
:1008F00085B9CF01022E02C0880F991F0A94E2F732
:1009000097FF03C085B18A2B02C085B1842385B9C6
:1009100085B18B2B85B900000000000000002F5F1F
:100920003F4F2031310511F720E030E085B18523BC
:1009300085B9CB01022E02C0880F991F0A94E2F7F5
:1009400087FF03C085B18A2B02C085B1842385B996
:1009500085B18B2B85B900000000000000002F5FDF
:100960003F4F2830310511F720E030E0612F70E073
:1009700085B1852385B9CB01022E02C0880F991F4E
:100980000A94E2F787FF03C085B18A2B02C085B1C4
:10099000842385B985B18B2B85B900000000000048
:1009A00000002F5F3F4F2830310511F785B15823E4
:1009B00055B91F9108950E94680260915F0270917D
:1009C00060028CE4409148020E945D0460915F02E5
:1009D000709160024091490288E40E945D0408958C
:1009E0001F9311E04EC08091960181508093960133
:1009F000109364020E94DB0480915F029091600278
:100A000001969093600280935F0280919F01909184
:100A1000A00101969093A00180939F01809199017C
:100A2000815080939901809197019091980101964E
:100A3000909398018093970120915F02309160021A
:100A4000809167029091680228173907D1F460916C
:100A500065027091660287E540E00E948F03109264
:100A600064021092600210925F028091670280938C
:100A700099018091470280936302882311F01093BB
:100A8000570280919601882309F0ADCF1F910895F8
:100A900066BD85BD85B38823E9F3A89A15BC089582
:100AA00070938500609384009FEF96BB80938100D4
:100AB00086B38823E9F3B09A10928100089580915B
:100AC000C00087FFFCCF8091C60008958091C600CA
:100AD0000895AC0120E030E00FC02F5F3F4F8FE062
:100AE000213A380724F04150504020E030E04115D1
:100AF000510511F480E008958091C00087FFEDCF8B
:100B000081E008958091C10080688093C10078944D
:100B10000E949E01109245020E9440020E94F00431
:100B20000E949E0180915802882309F471C060914F
:100B30004E0270914F0280919F019091A001681721
:100B4000790719F580914502882309F055C0409135
:100B50009901552747FD509520916302332727FDC2
:100B600030958091670290916802821B930B481721
:100B70005907A1F680919D0190919E0186239723AC
:100B80009093660280936502C9CF809146028823C4
:100B9000F9F080916402882351F0809157028823F4
:100BA00031F480916502909166020E945504809113
:100BB0005702882309F18091670290916802209181
:100BC000650230916602820F931F0E94550414C083
:100BD00080915C02882381F080916402882351F027
:100BE00080915702882331F48091650290916602CA
:100BF0000E945504109257020E9440020E94F00485
:100C000080914502882309F48BCF1092450288CF4A
:100C1000F8948091C1008F778093C100289A82E078
:100C200090E00E946905813019F48091C600F7CFE9
:100C300080916402882351F080915702882331F417
:100C400080916502909166020E945504809157023E
:100C5000882361F08091670290916802209165027B
:100C600030916602820F931F0E945504089582E01E
:100C700090E00E946905813019F48091C600F7CF99
:100C80000895982F8091C00085FFFCCF9093C600F7
:100C90000895AC0120E030E0FA01E20FF31FE0819B
:100CA000EE2359F02F5F3F4F8091C00085FFFCCFAE
:100CB000E093C600283C310579F7089580E091E083
:100CC0000E944906089583E091E00E944906089534
:100CD0000F931F93182F062F85E06BE771EE0E948C
:100CE0005005E1ECF0E010821093C5000093C400C1
:100CF00082E08093C00088E1808386E08093C20018
:100D00001F910F910895EF92FF920F931F93CF932E
:100D1000DF93F82EEB018A01E22E80E0482F4F5F2F
:100D2000F801E80FF11DCE016F2D70E00E943B0F1E
:100D300080838A3010F4805D01C0895C8083CE019D
:100D40006F2D70E00E943B0FEB016115710511F0F2
:100D5000842FE4CF443078F48AE5E81661F4842FD8
:100D600090E306C0F801E80FF11D90838F5F4F5F9D
:100D70008430C0F301C0842FF801E80FF11D108208
:100D8000342F315020E00CC0D801A20FB11D9C912E
:100D9000F801E30FF11D80818C9390832F5F315018
:100DA000231790F3DF91CF911F910F91FF90EF9058
:100DB00008950F931F93DF93CF9300D000D000D0FE
:100DC000CDB7DEB78E010F5F1F4FA8012AE50E9445
:100DD0008306C8010E94490686E091E00E94490608
:100DE00026960FB6F894DEBF0FBECDBFCF91DF9130
:100DF0001F910F9108951F93A82F262F10E0FA013D
:100E0000E10FF11D822F6A2F0E942F0F90839A30DD
:100E100010F4905D01C0995C9083312F3F5F822F69
:100E20006A2F0E942F0F282F882311F0132FE7CF4E
:100E3000FA01E30FF11D108220E00BC0DA01A20FCE
:100E4000B11D9C91FA01E80FF11D80818C93908374
:100E50002F5F812F821B281788F31F9108950F930E
:100E60001F93DF93CF9300D000D0CDB7DEB78E01B4
:100E70000F5F1F4FA8010E94FB06C8010E94490690
:100E800086E091E00E9449060F900F900F900F901E
:100E9000CF91DF911F910F910895982F8A5387303A
:100EA00038F0903328F080E0973418F081E008950E
:100EB00081E008951F93CF93DF93EC011881812F78
:100EC0000E944D07882301F589810E944D078823E0
:100ED000D9F4812F80538883813110F01753188300
:100EE00098812981822F80538983813110F0275383
:100EF00029838981292F30E044E0220F331F4A954E
:100F0000E1F7280F311D02C020E030E0C901DF9178
:100F1000CF911F9108956F927F928F929F92AF927F
:100F2000BF92CF92DF92EF92FF920F931F93CF93D6
:100F3000DF936C014B013A01790158018091C000A7
:100F400087FFFCCF8091C600C1E0D0E08091C00057
:100F500087FFFCCF8091C60021968232B9F739C055
:100F60008091C00087FFFCCF2091C60021962232DD
:100F700009F488C0F401808191818C179D0754F594
:100F80002A3011F02D3081F4F70120813181F501F3
:100F9000E20FF31F31978081882329F421503040DC
:100FA000F7013183208320E0F70180819181F501F1
:100FB000E80FF91F20830196F701918380838F3F0B
:100FC000910544F02D3031F0222321F0F3014083CC
:100FD00001C041E0F3018081882311F2813009F0E2
:100FE00051C00E943706F401C083D183F70180818C
:100FF0009181F501E80FF91F10820196F7019183A5
:1010000080832898C0E0D0E00EC0F501EC0FFD1FF2
:1010100089E440810E948F032196F70180819181AC
:10102000C817D90761F0F601608171816C0F7D1FCF
:1010300080919A0190919B016817790734F3F6012A
:10104000408151819E01240F351F80919A0190911A
:101050009B012817390751F483E0F30180836091E5
:101060009A0170919B01615070404EC041505040B8
:101070004C0F5D1FF60151834083F70111821082EE
:1010800080E078C02898F70180819181F501E80F10
:10109000F91F10820196F70191838083F401D183B7
:1010A000C083F70180819181F60120813181820F17
:1010B000931F9183808320919A0130919B01821725
:1010C000930774F183E0F3018083C0E0D0E009C0AE
:1010D000F501EC0FFD1F89E4B90140810E948F03E7
:1010E0002196F60120813181F70180819181281BB1
:1010F000390B2C0F3D1F60919A0170919B0161503B
:1011000070402617370724F389E440E00E948F03DC
:1011100080919A0190919B01F6019183808329C06F
:1011200082E0F3018083F60100811181F701808163
:101130009181081B190B0E9437062898C0E0D0E067
:101140000EC0F501EC0FFD1F89E440810E948F0362
:101150002196F70180819181C817D90751F0BE010E
:10116000600F711F80919A0190919B016817790718
:1011700044F381E0DF91CF911F910F91FF90EF90A9
:10118000DF90CF90BF90AF909F908F907F906F90A7
:101190000895EF92FF920F931F93CF93DF937C01FB
:1011A000C0915D02D0915E0222C00E94630680E180
:1011B000BE010E94D90688E091E00E9449068E0196
:1011C0000F5F1F4F8FE4BE0140E00E948F03982FF6
:1011D000882361F00E151F0541F08091C00085FF46
:1011E000FCCF9093C600E801EACF8701E801CE1555
:1011F000DF05DCF2DF91CF911F910F91FF90EF900F
:1012000008950F931F93CF93DF93EC018C01095B3B
:101210001F4FCE0121960E94620F982F882351F014
:10122000C017D10739F08091C00085FFFCCF9093A3
:10123000C600EFCFDF91CF911F910F9108956F926C
:101240007F928F929F92AF92BF92CF92DF92EF9256
:10125000FF920F931F93DF93CF93CDB7DEB7C051AB
:10126000D1400FB6F894DEBF0FBECDBF1D821C82E9
:101270001F821E82198280915D0290915E029B8383
:101280008A838BEA93E00E9401090E9463068DE045
:1012900091E00E9449068CE291E00E946905882352
:1012A000B1F38091C600873509F446C0883520F433
:1012B000823509F093C006C0823721F0873709F0E4
:1012C0008DC03AC00E94630680915D0290915E02DB
:1012D0009093A4018093A30180916D0290916E027E
:1012E00088549140B1F485E090E090935E02809341
:1012F0005D028CEF91E00E94C9080E94630680E0C5
:1013000092E090935E0280935D0287EF93E00E94EB
:10131000C90880916D0290916E02883A910509F09A
:101320005DC010925E0210925D0287EF91E00E9414
:10133000C9080E94630652C00E94630683E793E0D7
:101340000E94010980E091E00E944906209A579A84
:101350005F98E2E06E2E712C6C0E7D1E76E0872E7B
:10136000912C8C0E9D1E64E0A62EB12CAC0EBD1EE1
:1013700058E0C52ED12CCC0EDD1E7E010894E11C58
:10138000F11CC301B401A701950186010E948B07DE
:10139000882359F41982289A82EE93E00E94010969
:1013A00080E091E00E944906ECCF289A0E9437061F
:1013B000289A81E191E00E9449060E9463060E94FA
:1013C00037068091C00087FFFCCF8091C60020982F
:1013D00057985F9A8A819B810E94C9082EE088E114
:1013E00090E00FB6F894A895809360000FBE20930C
:1013F0006000FFCF2F923F924F925F926F927F9249
:101400008F929F92AF92BF92CF92DF92EF92FF9214
:101410000F931F93DF93CF93CDB7DEB729970FB606
:10142000F894DEBF0FBECDBF89EE93E00E940109A4
:1014300085E191E00E9449068091C00087FFFCCFC2
:101440008091C6008A831B8280E389838BE490E0CD
:101450000E946905882329F08A8189838091C600CA
:101460008A830E943706CE0101960E945A075C01CA
:1014700080E1B5010E94D9060E945E06A114B10464
:1014800011F41D8211C089E191E00E9449060E9479
:1014900063068091C00087FFFCCF4091C6004D835A
:1014A0000E9437060E9463061092950110929401E3
:1014B0001092A2011092A1014090970150909801C2
:1014C00085E06BE771EE0E945005209A579A5F986D
:1014D000662477241F821E82EE24FF24CC24DD2480
:1014E0004114510409F486C1109249021092480235
:1014F0008CE4B60140E00E948F03182F80934802CD
:101500001092490288E4B60140E00E948F03312E18
:1015100022249101280F311D309349022093480263
:10152000A114B10449F087EB86BD95E095BD85B364
:101530008823E9F3A89A15BC0894C11CD11C80919A
:10154000540290915502C816D90641F02F5F3F4FC3
:1015500031F428980894E11CF11CC6CFC60147015C
:10156000289AC816D90609F445C1A114B10479F422
:101570008E819F810A9709F06BC08091C00085FF22
:10158000FCCF9AE29093C6001F821E8261C08091B8
:10159000A1019091A201892B21F06A147B0409F02A
:1015A00057C00E946306EE0CFF1C80E1B7010E9449
:1015B000D9060E945E0660914802709149024D81F1
:1015C000413309F042C0472F5527CA0180979B013C
:1015D00030708F35910530F0205230402F35310575
:1015E000E8F033C02032310580F02F37310568F440
:1015F0008091C00085FFFCCF4093C6008091C00061
:1016000085FFFCCF6093C60023C08091C00085FF9A
:10161000FCCF4093C60080E10E942F0760914802F2
:1016200070914902CB01907080978F35910580F4BD
:1016300080E1672F0E942F07909148028091C0009F
:1016400085FFFCCF9093C60003C080E10E94D906BD
:1016500080919401909195010196909395018093CA
:10166000940108944108510800E08CE4B60140E080
:101670000E948F03182F809348021092490288E439
:10168000B60140E00E948F03198718866885798526
:10169000680F711D7093490260934802A114B10450
:1016A00049F087EB86BD95E095BD85B38823E9F3C6
:1016B000A89A15BC4FEF6F3F740709F46EC00894E9
:1016C000811C911C86FE02C0289801C0289AA11492
:1016D000B10409F453C08091A1019091A201892B1A
:1016E00021F06A147B0409F049C08D81813309F02F
:1016F00042C0472F5527CA0180979B0130708F3514
:10170000910530F0205230402F353105E8F033C0DC
:101710002032310580F02F37310568F48091C00008
:1017200085FFFCCF4093C6008091C00085FFFCCFB1
:101730006093C60023C08091C00085FFFCCF40931A
:10174000C60080E10E942F07609148027091490213
:10175000CB01907080978F35910580F480E1672FE1
:101760000E942F07909148028091C00085FFFCCF16
:101770009093C60003C080E10E94D90608944108F6
:1017800051080894C11CD11C80919401909195013D
:1017900001969093950180939401809154029091C9
:1017A0005502C816D90621F00F5F073009F05DCF4A
:1017B0006A147B0411F4662477248091A10190912E
:1017C000A20101969093A2018093A10180915402FD
:1017D00090915502C816D90669F00894611C711CD5
:1017E0008E819F8101969F838E8374010894E11CF2
:1017F000F11C76CE289A0E9463060E946306299601
:101800000FB6F894DEBF0FBECDBFCF91DF911F9111
:101810000F91FF90EF90DF90CF90BF90AF909F908F
:101820008F907F906F905F904F903F902F90089592
:101830000F931F93CF93DF93A89584B7877F84BFBF
:1018400080916000886180936000109260006091D8
:1018500066008DEF93E00E946A0F87EB86BD85E0FE
:1018600085BD85B38823E9F3A89A15BC8EEF93E074
:101870000E94620F182F803160F0803F50F48FEF8C
:1018800093E00E94620F181721F41093660001E0A4
:1018900001C000E080917C00806480937C0080E047
:1018A00060E10E94680685B18D6385B988B1876063
:1018B00088B9299A8BB18C6F8BB98EE191E00E9427
:1018C00049068FEF90E00E9469058823B1F380916B
:1018D000C600813591F798E09093510280E18093A2
:1018E000500280E2809362029093610284B1886228
:1018F00084B93B9A83EC86BD84E085BD85B388239B
:10190000E9F3A89A15BC43982D9883EC86BD84E032
:1019100085BD85B38823E9F3A89A15BC439A83EC67
:1019200086BD84E085BD85B38823E9F3A89A15BCFC
:10193000439884E686BD85E085BD85B38823E9F3B9
:10194000A89A15BC83E59CEA60E070E00E948F02D3
:10195000833541F480E090E360E070E00E948F0204
:101960008E3191F082E593E00E9401090E946306A6
:101970002BE088E190E00FB6F894A8958093600082
:101980000FBE20936000FFCF80E090E360E071E045
:101990000E948F02C82FD0E080E090E360E072E008
:1019A0000E948F028830C1F0893038F4863051F1BE
:1019B000873078F4853091F512C08B3019F18C3076
:1019C00018F48A3059F50BC08F3099F0843131F515
:1019D00010C088E090E008C083E290E005C0C23902
:1019E000D10569F480E390E090936E0280936D02DC
:1019F0002BC0C539D10519F488E491E0F5CF88E50D
:101A000090E0F2CFC439D10519F488EA90E0ECCF28
:101A1000C339D105C9F48FE090E0E6CF0E94630698
:101A200082E593E00E9401090E9463060E9463061A
:101A30002BE088E190E00FB6F894A89580936000C1
:101A40000FBE20936000FFCF0E94630682E291E008
:101A50000E94490680916D0290916E02883A91052C
:101A600029F08854914009F045C021C089E291E0F5
:101A70000E94490680E490E0909368028093670298
:101A800080EC9FE190939E0180939D0180E090E225
:101A9000909355028093540287EF91E090939B01BD
:101AA00080939A0110925E0210925D022FC08DE227
:101AB00091E00E94490680E490E090936802809350
:101AC000670280EC9FE390939E0180939D0180E0EC
:101AD00090E4909355028093540287EF93E09093A3
:101AE0009B0180939A0180E092E090935E02809344
:101AF0005D020CC02EE088E190E00FB6F894A89546
:101B0000809360000FBE20936000FFCF8DE292E0D3
:101B10000E9401098091C00087FFFCCF8091C60020
:101B2000803511F08037B1F783EC86BD84E085BD48
:101B300085B38823E9F3A89A15BC88B13091610276
:101B4000232F2095822388B995B1809162028095D8
:101B5000892385B983EC86BD84E085BD85B3882360
:101B6000E9F3A89A15BC88B1832B88B983EC86BDAC
:101B700084E085BD85B38823E9F3A89A15BC88B1B4
:101B8000282328B984E686BD85E085BD85B38823F2
:101B9000E9F3A89A15BC83E59CEA60E070E00E9436
:101BA0008F020E94630689E492E00E9401090E946C
:101BB00063068091C00087FFFCCF1091C6001835E6
:101BC00009F468C0193548F4153481F0103509F46A
:101BD0005CC0143409F06AC00CC0103709F455C059
:101BE000183709F457C0153609F060C00E941F0964
:101BF0005DC081E391E00E9449060E9463068091E6
:101C0000C00087FFFCCF8091C600843491F588E442
:101C100091E00E9449060E94630680916D029091B6
:101C20006E02883A910561F4C0E0D0E089E4BE011B
:101C30004FEF0E948F03219681E0C73FD807B1F78D
:101C400080916D0290916E028854914061F4C0E0E1
:101C5000D0E089E4BE014FEF0E948F03219683E01C
:101C6000CD3FD807B1F783E591E00E9449060E9475
:101C700063062AE088E190E00FB6F894A895809377
:101C800060000FBE20936000FFCF88E591E00E94C6
:101C900049060CC02AE088E190E00FB6F894A895B8
:101CA000809360000FBE20936000FFCF103519F0C5
:101CB000103709F07ECF80E89CEA60E070E00E9477
:101CC0008F0284EA9CEA6FEF70E00E948F0288EA3C
:101CD0009CEA67ED70E00E948F0280EA9CEA62EE67
:101CE00070E00E948F0280EE9CEA6BEE70E00E9432
:101CF0008F02109298011092970110925B0210923D
:101D00006C0210926B0210925302109252021092C7
:101D100064021092A00110929F011092460210924C
:101D2000570210929C01109256020E94630686E8A8
:101D300092E00E9401090E946306209A579A5F98D8
:101D40000E948205209857985F9A0E94FA0920986D
:101D500057985F9A84E691E00E9449060E946306C4
:101D60008EEF92E00E9401090E94630688E090E5F0
:101D700060E070E00E948F02682F80E170E00E94B6
:101D8000D90688E098E560E070E00E948F02682F35
:101D900080E170E00E94D90680E090E560E070E0AC
:101DA0000E948F02682F80E170E00E94D90680E0D7
:101DB00098E560E070E00E948F02682F80E170E09B
:101DC0000E94D90683E893E00E940109013031F4B2
:101DD0006091660080E170E00E94D9066091660023
:101DE00080E170E00E94D9060E94630689E993E0D1
:101DF0000E94010960915202709153028AE00E9490
:101E0000D9060E945E0680E891E00E9449060E9481
:101E10005E0660919701709198018AE00E94D90650
:101E20008AE891E00E9449060E945E066091940152
:101E3000709195018AE00E94D9068FE891E00E9496
:101E400049060E9463062AE088E190E00FB6F89404
:101E5000A895809360000FBE20936000FFCF991B70
:101E600079E004C0991F961708F0961B881F7A9591
:101E7000C9F780950895AA1BBB1B51E107C0AA1F93
:101E8000BB1FA617B70710F0A61BB70B881F991F1B
:101E90005A95A9F780959095BC01CD01089597FBBF
:101EA000092E07260AD077FD04D0E5DF06D00020F2
:101EB0001AF4709561957F4F0895F6F79095819586
:101EC0009F4F0895F999FECF92BD81BDF89A992749
:101ED00080B50895262FF999FECF1FBA92BD81BD16
:101EE00020BD0FB6F894FA9AF99A0FBE019608959C
:041EF000F894FFCF94
:101EF4002020000D0A00200020202020003F202068
:101F040000414B3F0020202000312F323F00512060
:101F1400200041544D4547410031363800333238B2
:101F240000526573657420454550524F4D2120443D
:101F3400206F7220414F4B00352073656320776119
:101F4400697400446F6E650038204D487A20636CD4
:101F54006F636B0041544D4547412050726F677267
:101F6400616D6D6572202053572076312E30380014
:101F740064276C6F616465643A0020696E3A0020DE
:041F84006F75740001
:00000001FF
