:100000000C9434000C9451000C9451000C94510049
:100010000C9451000C9451000C9451000C9451001C
:100020000C9451000C9451000C9451000C9451000C
:100030000C9451000C9451000C9451000C945100FC
:100040000C9451000C9451000C9451000C945100EC
:100050000C9451000C9451000C9451000C945100DC
:100060000C9451000C94510011241FBECFEFD4E02A
:10007000DEBFCDBF13E0A0E0B1E0E4E7F8E102C0ED
:1000800005900D92A232B107D9F713E0A2E2B3E0D6
:1000900001C01D92A832B107E1F70E94B9090C9482
:1000A000380C0C94000020E030E003C000002F5F0B
:1000B0003F4F82179307D4F70895AC0120E030E05A
:1000C00062EB95E009C066BD95BD85B38823E9F371
:1000D000A89A15BC2F5F3F4F24173507A4F3089546
:1000E00066BD85BD85B38823E9F3A89A15BC08953C
:1000F000EEE6F0E090819160908366BD85BD089545
:10010000EFE6F0E080818160808382E0809381006F
:10011000089570938500609384009FEF96BB809351
:10012000810086B38823E9F3B09A10928100089584
:100130000F931F93182F062F85E062EF7CEF0E942C
:100140008900E1ECF0E010821093C5000093C40038
:1001500082E08093C00088E1808386E08093C200C3
:100160001F910F910895EFE6F0E0908191609083E8
:10017000709385006093840080938100089560935C
:10018000B2008093B10087B38823E9F3B89A109244
:10019000B100089584E48093BC008091BC0087FF87
:1001A000FCCF8091BB001092BB0084EC8093BC001C
:1001B0008091BC0087FFFCCF87E48093BB0084E87C
:1001C0008093BC008091BC0087FFFCCF84E88093C3
:1001D000BC008091BC0081648093BC000895309184
:1001E0006B0020916D0080916D008478843821F03F
:1001F00080916B0086FF0AC080916B008F7B80939B
:100200006B0080916D008B7780936D0064E454E8FF
:1002100040E81E9B02C090E301C091E34F9B01C0E8
:100220004A9B92E36093BC008091BC0087FFFCCFA7
:100230008091BB009093BB005093BC008091BC00A8
:1002400087FFFCCF4093BC00923319F730936B00CB
:1002500020936D0008951F9384E48093BC008091E7
:10026000BC0087FFFCCF8091BB001092BB0084ECE8
:100270008093BC008091BC0087FFFCCF8AE4809310
:10028000BB0084E88093BC008091BC0087FFFCCF5A
:1002900084E88093BC0084E48093BC008091BC001F
:1002A00087FFFCCF8091BB00E0E0F0E020E030E091
:1002B00040E050E014EC74E8E330F10549F4709349
:1002C000BC008091BC0087FFFCCF6091BB001CC0CC
:1002D0001093BC008091BC0087FFFCCF6091BB00F5
:1002E000F7FD16C0E330F10524F0E330F10581F4A9
:1002F0000BC0DA01C901860F911DA11DB11D222776
:10030000382F492F5A2F04C0260F311D411D511D72
:100310003196E430F10581F680E88093BC00B901A4
:10032000CA011F9108958091C00087FFFCCF0895F6
:100330008091C00087FFFCCF8091C6000895809116
:10034000C6000895982F20E030E00DC02F5F3F4F8A
:100350008FE1213438071CF0915020E030E09923E0
:1003600011F480E008958091C00087FFEFCF81E015
:1003700008958091C00087FFFCCF8091C6008D302A
:1003800011F08A3051F481E00E94A201882311F417
:100390008DE008958091C6008DE0089585E00E946B
:1003A000A201813019F48091C600F8CF0895982FEA
:1003B0008091C00085FFFCCF9093C6000895AC01EA
:1003C00020E030E0FA01E20FF31FE081EE2359F064
:1003D0002F5F3F4F8091C00085FFFCCFE093C600A8
:1003E000283C310579F7089580E091E00E94DF0113
:1003F00008951F931EE285E00E94A201813049F416
:100400008091C6008091C00085FFFCCF1093C6008C
:10041000F2CF0E94F4011F9108952F923F924F92C4
:100420005F926F927F928F929F92AF92BF92CF9284
:10043000DF92EF92FF920F931F93CF93DF93EC0124
:100440005A016B01403080E0580780E0680780E87F
:10045000780751F52A3021F0203109F06CC014C022
:1004600028E3288394E3998386E38A8383E38B8359
:100470002C839D8387E38E839F8381E3888782E338
:1004800089878DE28A870EC080E3888389838A8387
:100490008B838C838D838E8388E38F838DE2888723
:1004A00019861A861B8647C080E090E0FE01E80F9F
:1004B000F91F108201968C309105C1F786017501F4
:1004C000D7FE07C0EE24FF248701EA18FB080C09B9
:1004D0001D094E0166247724222E332444245524FA
:1004E000C801B701A20191010E94070CF4016083C9
:1004F0006A3010F4605D02C0695CF40160830894A6
:10050000611C711CC801B701A20191010E94070C76
:10051000C901DA017C018D010894811C911C1E1413
:100520001F0410061106E4F2D7FE05C06C0E7D1EF6
:100530008DE2F3018083DF91CF911F910F91FF90A6
:10054000EF90DF90CF90BF90AF909F908F907F9073
:100550006F905F904F903F902F900895AC0120E0F6
:1005600030E002C02F5F3F4FFA01E20FF31F80819E
:100570008823C1F721503040FA01E20FF31F2F5FAB
:100580003F4F0AC090818091C00085FFFCCF9093BF
:10059000C6002150304031972115310599F7089553
:1005A0000F931F93DF93CF93CDB7DEB72C970FB682
:1005B000F894DEBF0FBECDBF282F8E010F5F1F4FF7
:1005C000C8010E940D02C8010E94AE022C960FB60F
:1005D000F894DEBF0FBECDBFCF91DF911F910F9179
:1005E000089590E080538A3008F491E0892F0895AF
:1005F000803328F08A3328F08154863010F080E070
:10060000089581E008951F93182F87FF10C083E09D
:1006100091E00E94DF01412F552747FD50955095ED
:1006200041955F4F662757FD6095762F0AC087E09A
:1006300091E00E94DF01412F552747FD5095652F1E
:10064000752F8AE00E94D0021F910895AF92BF9249
:10065000CF92DF92EF92FF920F931F93CF93DF938E
:100660007A018B0160E070E0FC01E60FF71F108259
:100670006F5F7F4F6C307105B9F7EC01A22EBB2480
:10068000CC24DD24C801B701A60195010E94E50B29
:1006900068836A3010F4605D01C0695C6883C801DA
:1006A000B701A60195010E94E50BC901DA017C01A1
:1006B0008D012196E114F1040105110519F7DF916F
:1006C000CF911F910F91FF90EF90DF90CF90BF904F
:1006D000AF9008950F931F93DF93CF93CDB7DEB7FD
:1006E0002C970FB6F894DEBF0FBECDBF282F8E011A
:1006F0000F5F1F4FC8010E942603C8010E94AE026F
:100700002C960FB6F894DEBF0FBECDBFCF91DF9110
:100710001F910F910895EF92FF920F931F93DF9314
:10072000CF930F92CDB7DEB78091C00087FFFCCF8B
:100730001091C600103308F45AC01A3328F0812FE4
:100740008154863008F053C00E94F4018091C000AB
:1007500085FFFCCF1093C6001D3231F48DE28983F2
:10076000EE24FF2487010BC0612F60536A3008F02C
:100770006750E62EFF2400E010E0EBE2E9830E94E0
:10078000B901982F8D30F1F08033C8F38A3318F017
:1007900081548630A0F78091C00085FFFCCF9093F4
:1007A000C600892F80538A3008F0875034E0EE0C61
:1007B000FF1C001F111F3A95D1F7E80EF11C011D17
:1007C000111DDDCFF981FD3241F410950095F094B3
:1007D000E094E11CF11C011D111DB701C8010F902F
:1007E000CF91DF911F910F91FF90EF9008951D32EF
:1007F00009F09ACFA9CFDF92EF92FF920F931F9348
:10080000DF93CF930F92CDB7DEB720E030E0FC014D
:10081000E20FF31F10822F5F3F4F28303105B9F7E9
:100820008091C00087FFFCCF1091C600012F0053BC
:100830000A3010F01D32A1F70E94F4018091C0002F
:1008400085FFFCCF1093C6001D3231F48DE2898301
:10085000EE24FF24870106C0E02EFF2400E010E014
:10086000EBE2E9830E94B901982F8D30D9F040ED79
:10087000D42ED80EF9E0FD15A8F38091C00085FFB5
:10088000FCCF9093C600C801B7012AE030E040E0F9
:1008900050E00E94C60B7B018C01ED0CF11C011D88
:1008A000111DE0CF89818D3241F410950095F094AF
:1008B000E094E11CF11C011D111DB701C8010F904E
:1008C000CF91DF911F910F91FF90EF90DF900895EE
:1008D000BF92CF92DF92EF92FF920F931F93CF932D
:1008E000DF93AB01BC017B011127F7FC1095012FB1
:1008F00020E130E0C1E0D0E0E0E3BE2E71E3C72E9E
:10090000E0E1F0E060E2D62E21503040CE01022E30
:1009100002C0880F991F0A94E2F7AA2797FDA095B5
:10092000BA2F8E219F21A023B1230097A105B105E5
:1009300039F08091C00085FFFCCFC092C60006C090
:100940008091C00085FFFCCFB092C600CF01821B12
:10095000930B83709070892B31F48091C00085FFD8
:10096000FCCFD092C6002115310571F6BA0120E105
:1009700030E0E1E0F0E010E3B1E340E250E0A0E27B
:1009800021503040CF01022E02C0880F991F0A94D7
:10099000E2F786239723892B39F08091C00085FFE9
:1009A000FCCFB093C60006C08091C00085FFFCCF8D
:1009B0001093C600CA01821B930B83709070892B21
:1009C00031F48091C00085FFFCCFA093C6002115B3
:1009D0003105B1F6DF91CF911F910F91FF90EF900C
:1009E000DF90CF90BF900895782F84E48093BC006F
:1009F0008091BC0087FFFCCF8091BB007093BB004F
:100A000084EC8093BC008091BC0087FFFCCF609396
:100A1000BB0084EC8093BC008091BC0087FFFCCFBE
:100A2000FA0120E030E0472F50E0BA0161507040F9
:100A3000A4EC94E818C080812617370749F4809306
:100A4000BB009093BC008091BC0087FFFCCF08C026
:100A50008093BB00A093BC008091BC0087FFFCCFBB
:100A60002F5F3F4F3196241735072CF380E8809392
:100A7000BC000895DC01693429F06E3491F06434CF
:100A8000F9F41BC080E090E0FD01E80FF91F10822F
:100A9000019688309105C1F780E38C9388E061E08E
:100AA00014C080E090E0FD01E80FF91F108201966C
:100AB00088309105C1F780E38C9388E066E405C037
:100AC00018966C93189789E065E4AD010E94F404D0
:100AD0000895AC0188E062E40E94F4040895FC01EA
:100AE00082E3878388E064E4AF010E94F404089500
:100AF000FC0181E3878388E064E4AF010E94F40491
:100B00000895AC0188E064E40E94F4040895EF9233
:100B1000FF920F931F93DF93CF9300D000D00F92DB
:100B2000CDB7DEB77B018C01FE01319628E130E0C4
:100B3000D801C701022E04C0B595A7959795879552
:100B40000A94D2F78193285030408FEF283F38071E
:100B500079F74D8385E069E4AE014F5F5F4F0E94F6
:100B6000F4040F900F900F900F900F90CF91DF91A2
:100B70001F910F91FF90EF900895DF93CF9300D0D6
:100B800000D0CDB7DEB7AB01BC01FE01319628E144
:100B900030E0DB01CA01022E04C0B595A7959795F8
:100BA00087950A94D2F78193285030408FEF283FE1
:100BB000380779F784E06BE4AE014F5F5F4F0E9426
:100BC000F4040F900F900F900F90CF91DF91089544
:100BD000DF93CF9300D000D0CDB7DEB7AB01BC011F
:100BE000FE01319628E130E0DB01CA01022E04C08B
:100BF000B595A795979587950A94D2F78193285034
:100C000030408FEF283F380779F784E068E4AE0181
:100C10004F5F5F4F0E94F4040F900F900F900F9062
:100C2000CF91DF910895DF93CF930F92CDB7DEB7C9
:100C30001E9903C081E0898301C0198281E067E5C4
:100C4000AE014F5F5F4F0E94F4040F90CF91DF9190
:100C500008950F931F93DF93CF9300D0CDB7DEB7E6
:100C60001A828BE091E00E94DF018E010F5F1F4F1F
:100C70008091C00087FFFCCF8091C600883741F08B
:100C80008053898381E061E5A8010E94F404F0CFDC
:100C9000198281E061E5A8010E94F4048AE391E0F1
:100CA0000E94DF018091C00087FFFCCF8091C600C9
:100CB0000F900F90CF91DF911F910F910895DF93C7
:100CC000CF9300D0CDB7DEB7982F4A83698382E0F7
:100CD000692FAE014F5F5F4F0E94F4040F900F9099
:100CE000CF91DF910895DF93CF9300D0CDB7DEB7DA
:100CF00089836A8382E065E0AE014F5F5F4F0E94A7
:100D0000F4040F900F90CF91DF910895DF93CF936C
:100D100000D0CDB7DEB7982F698381E0692FAE018F
:100D20004F5F5F4F0E94F4040F900F90CF91DF91BF
:100D30000895982FAB0188E0692F0E94F40408956C
:100D4000AC0188E063E00E94F4040895EF92FF9202
:100D50001F93DF93CF93CDB7DEB728970FB6F894E4
:100D6000DEBF0FBECDBFFE013196CE0109961192B6
:100D7000E817F907E1F710E07E010894E11CF11C87
:100D80000E94B901982F8D3059F080538230C0F7FE
:100D9000110F1053190F1983C7010E94A006F0CF3D
:100DA000812F28960FB6F894DEBF0FBECDBFCF912E
:100DB000DF911F91FF90EF900895982FAB0188E08D
:100DC000692F0E94F4040895AC0188E061E00E945C
:100DD000F4040895CF93DF93EC0180E090E0FE01EE
:100DE000E80FF91F1082019688309105C1F78091B4
:100DF000C00087FFFCCF9091C600892F80538A30B6
:100E000010F09D32A1F79883CE010E94E4060E9463
:100E1000B901982F8D3079F080538A30C0F7FE01E8
:100E200027E030E0868187832150304031972115BB
:100E30003105C1F7E8CF0E942B01DF91CF910895D2
:100E4000DF93CF9300D0CDB7DEB781E689831A82D6
:100E500082E061E4AE014F5F5F4F0E94F4040F90A7
:100E60000F90CF91DF910895DF93CF9300D0CDB74E
:100E7000DEB789836A8382E061E6AE014F5F5F4F30
:100E80000E94F4040F900F90CF91DF910895DF93AB
:100E9000CF9300D000D0CDB7DEB74C81FB815A8113
:100EA000E98120E030E02130310581F02230310548
:100EB00024F42115310541F00EC02230310541F0F6
:100EC0002330310541F406C0E82F05C0592F03C077
:100ED000F62F01C0472F2F5F3F4F2430310519F700
:100EE0004C83FB835A83E98384E064E0AE014F5F67
:100EF0005F4F0E94F4040F900F900F900F90CF91CE
:100F0000DF9108958093BB0084EC8093BC008091B6
:100F1000BC0087FFFCCF08958093BB0084E88093DA
:100F2000BC008091BC0087FFFCCF089584EC8093C7
:100F3000BC008091BC0087FFFCCF8091BB0008956E
:100F400084E88093BC008091BC0087FFFCCF809137
:100F5000BB000895CF93DF93FC01EB0184E4809301
:100F6000BC008091BC0087FFFCCF8091BB0020E0DB
:100F700030E054EC5093BC008091BC0087FFFCCF64
:100F80004091BB0037FD20C02330310524F02330D1
:100F90003105D1F40DC080819181A281B381840F8C
:100FA000911DA11DB11DBA2FA92F982F882708C008
:100FB00080819181A281B381840F911DA11DB11DFA
:100FC00080839183A283B3832F5F3F4F2430310509
:100FD00089F684E88093BC008091BC0087FFFCCF39
:100FE0008091BB00888380E88093BC00DF91CF9123
:100FF0000895DF93CF93CDB7DEB727970FB6F89458
:10100000DEBF0FBECDBF1C821D821E821F821982D1
:101010008A8381E063E4AE014E5F5F4F0E94F40477
:101020008A818134A9F0CE010496BE016F5F7F4FA3
:101030000E94AA078EE391E00E94DF014C815D814E
:101040006E817F818AE00E94D00289810E94030321
:1010500027960FB6F894DEBF0FBECDBFCF91DF91BC
:101060000895DF93CF9300D0CDB7DEB789831A827E
:1010700081E06DE4AE014F5F5F4F0E94F40484E4B1
:101080008093BC008091BC0087FFFCCF8091BB00A7
:1010900084EC8093BC008091BC0087FFFCCF9091D2
:1010A000BB0084EC8093BC008091BC0087FFFCCF28
:1010B0002091BB0020518AE0989FC0011124280F85
:1010C00040E050E030E0B90161507040F4ECE4E8F9
:1010D00020C04617570769F4E093BC008091BC001C
:1010E00087FFFCCF9091BB008091C00085FFFCCFB3
:1010F0000CC0F093BC008091BC0087FFFCCF9091A6
:10110000BB008091C00085FFFCCF9093C6004F5F6D
:101110005F4F42175307ECF280E88093BC000F90BA
:101120000F90CF91DF910895FF920F931F93DF935C
:10113000CF930F92CDB7DEB7198281E06EE4AE0196
:101140004F5F5F4F0E94F40484E48093BC00809161
:10115000BC0087FFFCCF8091BB0084EC8093BC0077
:101160008091BC0087FFFCCF1091BB0084EC809382
:10117000BC008091BC0087FFFCCFF090BB0084E8EE
:101180008093BC008091BC0087FFFCCF0091BB0026
:1011900080E88093BC0083E491E00E94DF0180E559
:1011A00091E00E94DF01412F50E060E070E080E1BB
:1011B0000E94D0028091C00085FFFCCF89E080931F
:1011C000C60080E691E00E94DF015F2D40E0400F05
:1011D000511D662757FD6095762F8AE00E94D00248
:1011E00087E691E00E94DF018091C00087FFFCCF7D
:1011F0008091C600893709F050C08FE791E00E94C6
:10120000DF0181E06FE4AE014F5F5F4F0E94F404A5
:1012100084E48093BC008091BC0087FFFCCF809168
:10122000BB0084EC8093BC008091BC0087FFFCCFA6
:101230004091BB0084EC8093BC008091BC0087FF90
:10124000FCCF0091BB0084E88093BC008091BC007F
:1012500087FFFCCF1091BB0080E88093BC0050E07A
:1012600060E070E080E10E94D0028091C00085FFC4
:10127000FCCF89E08093C60080E991E00E94DF0105
:10128000502F40E0410F511D662757FD6095762F86
:101290008AE00E94D0020E94F4010F90CF91DF916A
:1012A0001F910F91FF90089584E48093BC0080917A
:1012B000BC0087FFFCCF8091BB001092BB0084EC88
:1012C0008093BC008091BC0087FFFCCF88E58093B1
:1012D000BB0084E88093BC008091BC0087FFFCCFFA
:1012E00084E88093BC008091BC0081648093BC0042
:1012F000089584E48093BC008091BC0087FFFCCFFC
:101300008091BB001092BB0084EC8093BC00809164
:10131000BC0087FFFCCF82E58093BB0084E880930C
:10132000BC008091BC0087FFFCCF80E88093BC00AC
:10133000089584E48093BC008091BC0087FFFCCFBB
:101340008091BB001092BB0084EC8093BC00809124
:10135000BC0087FFFCCF83E58093BB0084E88093CB
:10136000BC008091BC0087FFFCCF80E88093BC006C
:1013700008958F929F92AF92BF92CF92DF92EF9299
:10138000FF920F931F93DF93CF93CDB7DEB7C35573
:10139000D0400FB6F894DEBF0FBECDBF81E0898389
:1013A000A89584B7877F84BF80916000886180930F
:1013B00060001092600082E08093BA0080917C000F
:1013C000806480937C0085B78F7E85BF8AB18B77E0
:1013D0008AB98BB184688BB926982E9A85B78F7E8F
:1013E00085BF84B18B7784B987B1887F87B98AB18B
:1013F00087788AB985B1846885B988B1876088B9EA
:101400008BB188678BB96091660089EF91E00E948B
:101410002A0C499BFECF85E090E00E945D0087EF9B
:1014200091E00E94220C182F803150F0803F40F450
:1014300088EF91E00E94220C181711F410936600B7
:1014400080E060E10E9498000E9413060E94540907
:1014500084E48093BC008091BC0087FFFCCF809126
:10146000BB0084E88093BC008091BC0087FFFCCF68
:101470008091BB00813029F580E88093BC0088E929
:1014800091E00E94DF018091C00087FFFCCF809136
:10149000C600823361F0833318F48133A9F405C0A8
:1014A000833349F0843381F409C080E301C081E3D0
:1014B0000E94310809C00E94940806C00E942906B3
:1014C00003C080E88093BC008EEF91E00E94DF01B2
:1014D00081E06EE4AE014F5F5F4F0E94F40484E44C
:1014E0008093BC008091BC0087FFFCCF8091BB0043
:1014F00084EC8093BC008091BC0087FFFCCF1091EE
:10150000BB0084EC8093BC008091BC0087FFFCCFC3
:101510009090BB0062E0C62ED12CCC0EDD1E560191
:1015200064ECAE014C5A5F4F6093BC008091BC00EC
:1015300087FFFCCF9091BB006093BC008091BC0002
:1015400087FFFCCF8091BB00392F20E0F901E80F25
:10155000F11DCF01F501819391935F01E417F50728
:1015600019F784E88093BC008091BC0087FFFCCF12
:101570004091BB0080E88093BC0050E060E070E0E8
:1015800080E10E94D0020E94F40182E592E00E9474
:10159000DF01412F50E060E070E080E10E94D00266
:1015A0000E94F40155E2852E492D50E060E070E084
:1015B00080E10E94D0028FE692E00E94DF01F601F6
:1015C000E080F1800027F7FC0095102F8AE0B80139
:1015D000A7010E94D0028FE692E00E94DF01C801BD
:1015E000B70121E732E040E050E00E94070C8AE0BA
:1015F000BA01A9010E94D0028091C00085FFFCCFF2
:101600008092C6000E94F40182E090E0C80ED91ECC
:10161000CA14DB0411F09394C7CF84E792E00E94D0
:10162000DF010E948B03162F81EB92E00E94DF0105
:101630000FE38091C00087FFFCCF8091C6008937FF
:1016400081F00E94F4018091C00085FFFCCF0093DF
:10165000C6000E948B03162F83ED92E00E94DF01EB
:10166000E8CF84E48093BC008091BC0087FFFCCF6E
:101670008091BB001093BB0084E88093BC008091F4
:10168000BC0087FFFCCF80E88093BC0084E480939B
:10169000BC008091BC0087FFFCCF8091BB0084EC34
:1016A0008093BC008091BC0087FFFCCF8091BB0081
:1016B000883549F584EC8093BC008091BC0087FF9D
:1016C000FCCF9091BB0084E88093BC008091BC006B
:1016D00087FFFCCF1091BB00D92ECC2480E88093EB
:1016E000BC000E94F401C10ED11CEE24D7FCE09492
:1016F000FE2C8AE0B701A6010E94D00287ED92E09D
:101700000E94DF012BC0893559F585EF92E00E94D8
:10171000DF0184EC8093BC008091BC0087FFFCCF8C
:101720004091BB0050E060E070E080E10E94D00298
:101730008FE692E00E94DF0184E88093BC008091F4
:10174000BC0087FFFCCF4091BB0080E88093BC00C9
:1017500050E060E070E080E10E94D0020E94F4015D
:1017600082E193E00E94DF018091C00087FFFCCFFF
:101770008091C60029E088E190E00FB6F894A89522
:10178000809360000FBE20936000FFCF629FD00166
:10179000739FF001829FE00DF11D649FE00DF11D2C
:1017A000929FF00D839FF00D749FF00D659FF00DDB
:1017B0009927729FB00DE11DF91F639FB00DE11DC8
:1017C000F91FBD01CF0111240895A1E21A2EAA1B11
:1017D000BB1BFD010DC0AA1FBB1FEE1FFF1FA217E1
:1017E000B307E407F50720F0A21BB30BE40BF50BDE
:1017F000661F771F881F991F1A9469F76095709567
:10180000809590959B01AC01BD01CF01089597FB98
:10181000092E05260ED057FD04D0D7DF0AD0001CB4
:1018200038F450954095309521953F4F4F4F5F4F7D
:101830000895F6F790958095709561957F4F8F4F3D
:101840009F4F0895F999FECF92BD81BDF89A9927CF
:1018500080B50895262FF999FECF1FBA92BD81BD9C
:1018600020BD0FB6F894FA9AF99A0FBE0196089522
:04187000F894FFCF1A
:101874000D0A0020452D0020452B000D0A53656EEE
:1018840064203020746F203720746F2061646A757F
:10189400737420696E74657276616C207820776841
:1018A400656E20646F6E650D0A00414B3F000D0AA2
:1018B400302E000D0A41544D454741203332380043
:1018C4002020202043616C20666163746F722000C5
:1018D4006572726F7220000D0A517569636B206323
:1018E400616C3F2079206F7220414F4B0D0A0054E8
:1018F400656D702063616C20666163746F72200093
:101904006572726F722020000D0A50726573730D38
:101914000A3120666F72204F532076657273696FA7
:101924006E0D0A3220666F722073797374656D20B0
:10193400646174610D0A3320746F2063616C2074D8
:101944006865203332380D0A342044656D6F207485
:101954006865206D756C7469706C657865720D0AC4
:101964003020746F206573636170650D0A000D0A81
:1019740041544D45474120333238206D616E7561C5
:101984006C2063616C6962726174696F6E20287087
:101994006C656173652077616974203130207365EB
:1019A400636F6E6473290D0A43616C20666163740E
:1019B4006F7220757365722076616C7565202020C6
:1019C400090043616C20666163746F72206465660C
:1019D40061756C742076616C756520202009002087
:1019E40020200900456E746572206E65772075733A
:1019F40065722063616C2076616C75650D0A6F7287
:101A040020656E74657220464620746F2064656C90
:101A14006574652074686520757365722063616CF4
:101A2400000D0A50726573732079206966204F4B4C
:101A3400206F7220414F4B20616E64207265706587
:101A440061740020793F0020204572726F72207407
:101A54006F6F206772656174212054727920616709
:101A640061696E2E000D0A56616C75657320736191
:101A740076656420746F20454550524F4D202020D8
:101A84000900414B20746F207265706561740D0A02
:021A9400000050
:00000001FF
